:020000040800F2
:1000000000000320A50E0008A5030008A7030008B0
:10001000A9030008AB030008AD03000800000000BE
:10002000000000000000000000000000AF03000816
:10003000B103000800000000B3030008B503000886
:10004000F50E0008F50E0008F50E0008F50E000884
:10005000F50E0008F50E0008F50E0008F50E000874
:10006000F50E0008F50E0008F50E0008F50E000864
:10007000F50E0008F50E0008F50E0008F50E000854
:10008000F50E0008F50E0008F50E0008F50E000844
:10009000F50E0008F50E0008F50E0008F50E000834
:1000A000F50E0008F50E0008F50E0008F50E000824
:1000B000F50E0008F50E0008F50E0008F50E000814
:1000C000F50E0008F50E0008F50E0008F50E000804
:1000D000F50E0008F50E0008F50E0008F50E0008F4
:1000E000F50E0008F50E0008F50E0008F50E0008E4
:1000F000F50E0008F50E0008F50E0008F50E0008D4
:10010000F50E0008F50E0008F50E0008F50E0008C3
:10011000F50E0008F50E0008F50E0008F50E0008B3
:10012000F50E0008F50E0008F50E0008F50E0008A3
:10013000F50E0008F50E0008F50E0008F50E000893
:10014000F50E0008F50E0008F50E0008F50E000883
:10015000F50E0008F50E0008F50E0008F50E000873
:10016000F50E0008F50E0008F50E0008F50E000863
:10017000F50E0008F50E0008F50E0008000000005E
:10018000F50E0008F50E0008F50E0008F50E000843
:10019000F50E0008F50E0008F50E0008F50E000833
:0C01A000F50E0008F50E0008F50E000832
:1001AC0053B94AB9002908BF00281CBF4FF0FF31D2
:1001BC004FF0FF3000F00CB8ADF1080C6DE904CE37
:1001CC0000F0C0FEDDF804E0DDE9022304B0704766
:1001DC00704700BF0348044B834202D0034B03B16A
:1001EC00184770470C0000200C0000200000000095
:1001FC000548064B1B1AD90F01EBA301491002D07D
:10020C00034B03B1184770470C0000200C00002072
:10021C000000000010B5064C237843B9FFF7DAFF55
:10022C00044B13B10448AFF300800123237010BDBD
:10023C000C000020000000001812000808B5054B47
:10024C001BB105490548AFF30080BDE80840FFF736
:10025C00CFBF00BF000000001000002018120008E3
:10026C0072B6FEE700B595B03022002108A800F068
:10027C0061FE002303930493059306930793019364
:10028C00234A116C41F080511164126C02F08052BF
:10029C000192019A02931F4B1A6842F440421A6071
:1002AC001B6803F440430293029B012308934FF411
:1002BC008033099302230E934FF480020F92042291
:1002CC001092B422119212930323139308A800F0F6
:1002DC008BF8B0B900F0B6FCA8B90F230393022336
:1002EC000493002305934FF4A05306934FF48053CB
:1002FC000793052103A800F0E1FA30B915B05DF8B9
:10030C0004FBFFF7ADFFFFF7ABFFFFF7A9FF00BF43
:10031C00003802400070004030B589B000240394CE
:10032C0004940594069407940094194B1A6B42F0AC
:10033C0080021A631A6B02F080020092009A0194F8
:10034C001A6B42F001021A631A6B02F0010201925D
:10035C00019A02941A6B42F040021A631B6B03F071
:10036C0040030293029B0B4D22464FF4C04128469A
:10037C0000F058FC4FF4C0430393012304930594FD
:10038C00069403A9284600F049FB09B030BD00BF14
:10039C000038024000180240FEE7FEE7FEE7FEE7E9
:1003AC00FEE770477047704708B500F027FD08BDA1
:1003BC0082B0002100910B4B5A6C42F480425A647B
:1003CC005A6C02F480420092009A01911A6C42F02D
:1003DC0080521A641B6C03F080530193019B02B092
:1003EC00704700BF00380240002800F0E08170B573
:1003FC0082B00446036813F0010F3BD09F4B9B68FF
:10040C0003F00C03042B2CD09C4B9B6803F00C03C7
:10041C00082B21D06368B3F5803F4FD0B3F5A02FE4
:10042C0052D0964B1A6822F480321A601A6822F461
:10043C0080221A606368002B50D000F0EBFC05465C
:10044C008E4B1B6813F4003F14D100F0E3FC401BEF
:10045C006428F5D90320B1E1884B5B6813F4800F55
:10046C00D8D0864B1B6813F4003F03D06368002B75
:10047C0000F09F81236813F0020F54D07F4B9B68D0
:10048C0013F00C0F3ED07D4B9B6803F00C03082B34
:10049C0033D0E368002B68D0794B01221A6000F04E
:1004AC00B9FC0546754B1B6813F0020F54D100F0D4
:1004BC00B1FC401B0228F5D903207FE16F4A136879
:1004CC0043F480331360B5E76C4B1A6842F4802216
:1004DC001A601A6842F480321A60ABE700F09AFC9A
:1004EC000546664B1B6813F4003FC3D000F092FC2A
:1004FC00401B6428F5D9032060E1604B5B6813F462
:10050C00800FC6D15D4B1B6813F0020F03D0E3685C
:10051C00012B40F05081594A136823F0F8032169EC
:10052C0043EAC1031360236813F0080F42D06369D8
:10053C006BB3534B0122C3F8802E00F06BFC0546C5
:10054C004E4B5B6F13F0020F34D100F063FC401B79
:10055C000228F5D9032031E1484A136823F0F80347
:10056C00216943EAC1031360DDE7454B00221A60A1
:10057C0000F050FC0546414B1B6813F0020FD2D023
:10058C0000F048FC401B0228F5D9032016E13C4B37
:10059C000022C3F8802E00F03DFC0546374B5B6F04
:1005AC0013F0020F06D000F035FC401B0228F5D9E1
:1005BC00032003E1236813F0040F77D02F4B1B6C3F
:1005CC0013F0805F33D1002301932C4B1A6C42F053
:1005DC0080521A641B6C03F080530193019B01251C
:1005EC00284B1B6813F4807F23D0A368012B34D0D5
:1005FC00052B38D0214B1A6F22F001021A671A6FA3
:10060C0022F004021A67A368002B3DD000F002FC14
:10061C0006461A4B1B6F13F0020F46D100F0FAFB83
:10062C00801B41F288339842F3D90320C6E00025A1
:10063C00D6E7144A136843F48073136000F0EAFBA6
:10064C000646104B1B6813F4807FCED100F0E2FB02
:10065C00801B0228F5D90320B0E0084A136F43F041
:10066C0001031367CFE7054B1A6F42F004021A67B8
:10067C001A6F42F001021A67C5E700BF003802404A
:10068C00000047420070004000F0C4FB0646524B8D
:10069C001B6F13F0020F08D000F0BCFB801B41F263
:1006AC0088339842F3D9032088E0EDB9A369002B75
:1006BC0000F08380484A926802F00C02082A51D05C
:1006CC00022B17D0454B00221A6600F0A3FB044600
:1006DC00414B1B6813F0007F42D000F09BFB001BCA
:1006EC000228F5D9032069E03B4A136C23F08053B0
:1006FC001364DBE7394B00221A6600F08BFB0546CE
:10070C00354B1B6813F0007F06D000F083FB401BB9
:10071C000228F5D9032051E0E369226A1343626A87
:10072C0043EA8213A26A5208013A43EA0243E26A9C
:10073C0043EA0263284A5360284B01221A6600F0F0
:10074C0069FB0446244B1B6813F0007F06D100F0B4
:10075C0061FB001B0228F5D903202FE000202DE0BF
:10076C0000202BE0012B2BD01B4B5B6803F480018A
:10077C00E269914226D103F03F02216A8A4223D1D9
:10078C00616A47F6C0721A40B2EB811F1ED103F4A6
:10079C004031A26A5208013AB1EB024F18D103F072
:1007AC007063E26AB3EB026F14D1002006E0012003
:1007BC007047012002E0012000E0002002B070BD73
:1007CC000120FBE70120F9E70120F7E70120F5E71D
:1007DC000120F3E70120F1E7003802400000474216
:1007EC0008B5334B9B6803F00C03042B5BD0082B30
:1007FC005BD12F4B5A6802F03F025B6813F4800FF9
:10080C002CD02B4B5868C0F388104FEA401CBCEB23
:10081C00000C6EEB0E0E4FEA8E1343EA9C634FEA0C
:10082C008C11B1EB0C0163EB0E03DB0043EA51734B
:10083C00C90011EB000C43F10003590200234FEAED
:10084C004C2041EADC51FFF7ABFC194B5B68C3F35E
:10085C00014301335B00B0FBF3F027E0144B586805
:10086C00C0F388104FEA401CBCEB000C6EEB0E0E74
:10087C004FEA8E1343EA9C634FEA8C11B1EB0C01E7
:10088C0063EB0E03DB0043EA5173C90011EB000C60
:10089C0043F10003990200234FEA8C2041EA9C515A
:1008AC00FFF77EFCD1E7034800E0034808BD00BF1A
:1008BC000038024000127A000024F400002800F0F6
:1008CC009B8070B50D4604464F4B1B6803F00F031D
:1008DC008B4208D2CBB24C4A1370136803F00F034F
:1008EC008B4240F08B80236813F0020F17D013F06B
:1008FC00040F04D0454A936843F4E0539360236893
:10090C0013F0080F04D0414A936843F4604393609A
:10091C003E4A936823F0F003A1680B43936023686D
:10092C0013F0010F32D06368012B21D09A1E012ADB
:10093C0025D9364A126812F0020F61D033498A6801
:10094C0022F0030213438B6000F064FA06462F4B2F
:10095C009B6803F00C036268B3EB820F16D000F0B7
:10096C0059FA801B41F288339842F0D9032042E0B7
:10097C00264A126812F4003FE0D101203BE0234AE2
:10098C00126812F0007FD9D1012034E01E4B1B6895
:10099C0003F00F03AB4207D9EAB21B4B1A701B686A
:1009AC0003F00F03AB422DD1236813F0040F06D0D4
:1009BC00164A936823F4E053E1680B439360236871
:1009CC0013F0080F07D0114A936823F46043216990
:1009DC0043EAC1039360FFF703FF0C4B9B68C3F31F
:1009EC0003130B4AD35CD8400A4B18600A4B1868A7
:1009FC0000F0C4F9002070BD012070470120FAE717
:100A0C000120F8E70120F6E7003C024000380240E4
:100A1C0030120008080000200400002000230F2BD7
:100A2C0000F2F68070B582B066E085684FEA430E3E
:100A3C00032404FA0EF425EA0405CC6804FA0EF437
:100A4C002C438460446824EA02044A68C2F300120E
:100A5C009A40224342605DE0DC08083450F82420C0
:100A6C0003F00705AD004FF00F0E0EFA05FE22EA5B
:100A7C000E0E0A69AA4042EA0E0240F824205DE0FC
:100A8C00092200E0002202FA0EF22A430234614DE0
:100A9C0045F82420604A94686FEA0C0224EA0C059D
:100AAC004E6816F4801F01D04CEA04055A4CA56020
:100ABC00E46802EA04054E6816F4001F01D04CEA03
:100ACC000405554CE560646802EA04054E6816F4AA
:100ADC00003F01D04CEA04054F4C6560246822406D
:100AEC004D6815F4803F01D04CEA04024A4C226058
:100AFC0001330F2B00F28A8001229A400C6804EA21
:100B0C00020C32EA0404F3D14C6804F00304013CF7
:100B1C00012C8AD94A6802F00302032A09D0C4685E
:100B2C005D000322AA4024EA02048A68AA402243F8
:100B3C00C2604A6802F00302022A8DD004684FEAB0
:100B4C00430E032202FA0EF224EA02044A6802F06F
:100B5C00030202FA0EF2224302604A6812F4403F8A
:100B6C00C6D0002201922D4A546C44F48044546443
:100B7C00526C02F480420192019A9C08A51C254AF1
:100B8C0052F8255003F0030E4FEA8E0E0F2202FA94
:100B9C000EF225EA0205224A90423FF473AF02F5A9
:100BAC008062904222D002F58062904220D002F501
:100BBC00806290421ED002F5806290421CD002F5F9
:100BCC00806290421AD002F58062904218D002F5F1
:100BDC008062904216D002F58062904214D002F5E9
:100BEC00806290423FF44CAF0A224CE701224AE764
:100BFC00022248E7032246E7042244E7052242E7A3
:100C0C00062240E707223EE708223CE702B070BD0F
:100C1C00704700BF00380140003C014000380240E2
:100C2C00000002400AB1816170470904816170477C
:100C3C00436901EA030221EA030141EA02418161AD
:100C4C007047000010B582B000230193194B1A6C49
:100C5C0042F080521A641B6C03F080530193019B89
:100C6C00154B01221A6400F0D5F80446134B5B684F
:100C7C0013F4803F08D100F0CDF8001BB0F57A7F5B
:100C8C00F4D9032002B010BD0B4B01225A6400F0C2
:100C9C00C1F80446094B5B6813F4003F07D100F020
:100CAC00B9F8001BB0F57A7FF4D90320EAE70020ED
:100CBC00E8E700BF0038024000000E420070004020
:100CCC00074AD36823F4E0631B041B0C000200F4F6
:100CDC00E060034343F0BF6343F40033D3607047D9
:100CEC0000ED00E000B5194BDB68C3F30223C3F140
:100CFC00070CBCF1040F28BF4FF0040C03F1040ED9
:100D0C00BEF1060F18D9033B4FF0FF3E0EFA0CFC58
:100D1C0021EA0C0199400EFA03FE22EA0E020A4364
:100D2C0000280BDB1201D2B200F1604000F56140EB
:100D3C0080F800235DF804FB0023E5E700F00F00CA
:100D4C001201D2B2024B1A54F4E700BF00ED00E0DE
:100D5C0014ED00E00138B0F1807F0BD24FF0E023AE
:100D6C005861054AF02182F823100020986107226F
:100D7C001A6170470120704700ED00E010B5044681
:100D8C000E4B1A784FF47A73B3FBF2F30C4A1068DB
:100D9C00B0FBF3F0FFF7DEFF68B90F2C01D901208F
:100DAC000AE0002221464FF0FF30FFF79BFF054B76
:100DBC001C60002000E0012010BD00BF00000020DE
:100DCC00080000200400002008B50B4B1A6842F400
:100DDC0000721A601A6842F480621A601A6842F44F
:100DEC0080721A600320FFF76BFF0F20FFF7C6FF1E
:100DFC00FFF7DEFA002008BD003C0240034A1168F0
:100E0C00034B1B780B441360704700BF2800002075
:100E1C0000000020014B1868704700BF280000201C
:100E2C0038B50446FFF7F6FF0546B4F1FF3F02D094
:100E3C00044B1B781C44FFF7EDFF401BA042FAD378
:100E4C0038BD00BF00000020034AD2F8883043F4BC
:100E5C007003C2F88830704700ED00E008B5FFF76A
:100E6C00B3FFFFF7FFF9FFF757FA0A4C4FF4804135
:100E7C002046FFF7DDFE4FF4FA60FFF7D1FF4FF489
:100E8C0000512046FFF7D4FE4FF4FA60FFF7C8FF7D
:100E9C00EBE700BF00180240DFF834D00D480E49D4
:100EAC000E4A002302E0D458C4500433C4188C42B8
:100EBC00F9D30B4A0B4C002301E013600432A2421D
:100ECC00FBD3FFF7C1FF00F011F8FFF7C7FF704726
:100EDC0000000320000000200C000020501200082D
:100EEC000C0000202C000020FEE7000070B50D4D1A
:100EFC000D4C641BA4100026A64209D10B4D0C4CC2
:100F0C0000F084F9641BA4100026A64205D170BD24
:100F1C0055F8043B98470136EEE755F8043B9847E3
:100F2C000136F2E74812000848120008481200087F
:100F3C004C12000802440346934200D1704703F858
:100F4C00011BF9E72DE9F047089E0D4604460F46B4
:100F5C00002B4AD18A42944665D9B2FA82F343B146
:100F6C0002FA03FCC3F120029F4020FA02F217435D
:100F7C009C404FEA1C4E1FFA8CF5B7FBFEF1220C7D
:100F8C000EFB117742EA074201FB05F090420AD9A9
:100F9C001CEB020201F1FF3780F01C81904240F201
:100FAC00198102396244121AA4B2B2FBFEF00EFB94
:100FBC00102244EA024400FB05F5A5420AD91CEBB9
:100FCC00040400F1FF3280F00781A54240F2048155
:100FDC006444023840EA0140641B00211EB1DC402D
:100FEC000023C6E90043BDE8F0878B4208D9002EE8
:100FFC0000F0ED800021C6E900050846BDE8F08749
:10100C00B3FA83F1002949D1AB4202D3824200F2F8
:10101C00F880841A65EB030201201746002EE2D0FB
:10102C00C6E90047DFE702B9FFDEB2FA82F3002B14
:10103C0040F090808A1A4FEA1C471FFA8CFE01215F
:10104C00B2FBF7F507FB1520220C42EA00420EFB1F
:10105C0005F0904208D91CEB020205F1FF3802D2D0
:10106C00904200F2CB804546121AA4B2B2FBF7F0C4
:10107C0007FB102244EA02440EFB00FEA64508D9E9
:10108C001CEB040400F1FF3202D2A64500F2BB8037
:10109C001046A4EB0E0440EA05409FE7C1F120077F
:1010AC008B4022FA07FC4CEA030C05FA01F420FAF7
:1010BC0007F3FD404FEA1C492343B5FBF9F81FFA2F
:1010CC008CFE09FB18551C0C44EA054408FB0EF574
:1010DC00A54202FA01F200FA01F00BD91CEB040450
:1010EC0008F1FF3A80F08880A54240F28580A8F193
:1010FC0002086444641B9DB2B4FBF9F309FB13446E
:10110C0045EA044403FB0EFEA64508D91CEB040477
:10111C0003F1FF356CD2A6456AD9023B644443EA1D
:10112C000843A3FB0295A4EB0E04AC42C846AE46A2
:10113C0056D353D056B1B0EB080264EB0E0404FA4C
:10114C0007F7CA40CC401743C6E900741846002183
:10115C00BDE8F087C3F1200102FA03FC20FA01F28A
:10116C0025FA01F19D402A434FEA1C471FFA8CFED9
:10117C00B1FBF7F007FB1015110C41EA054100FB20
:10118C000EF58D4204FA03F408D91CEB010100F1B1
:10119C00FF382FD28D422DD902386144491B92B2AF
:1011AC00B1FBF7F507FB151142EA014205FB0EF105
:1011BC00914208D91CEB020205F1FF3816D291427C
:1011CC0014D9023D6244521A45EA004138E73146CF
:1011DC00304608E73946E6E61046FBE64845A9D214
:1011EC00B9EB020865EB0C0E013BA3E74546EAE7B9
:1011FC002B4694E74046D1E7D0467BE7023D62445C
:10120C0032E708460AE76444023842E7F8B500BF03
:10121C00F8BC08BC9E467047F8B500BFF8BC08BCCB
:04122C009E46704723
:101230000000000000000000010203040607080986
:0812400010FDFF7F010000001A
:04124800490200084F
:04124C002102000873
:0C12500001000000100000000024F40069
:0400000508000EA53C
:00000001FF
