:020000040800F2
:1000000000000320DD5B0008C9080008CB080008D9
:10001000CD080008CF080008D10800080000000043
:10002000000000000000000000000000A1500008D7
:10003000D30800080000000041510008334C0008BC
:100040002D5C00082D5C00082D5C00082D5C00086C
:100050002D5C00082D5C00082D5C00082D5C00085C
:100060002D5C00082D5C00082D5C00082D5C00084C
:10007000D50800082D5C0008E50800082D5C000884
:100080002D5C00082D5C00082D5C00082D5C00082C
:100090002D5C00082D5C00082D5C00082D5C00081C
:1000A0002D5C0008F50800082D5C00082D5C000898
:1000B0002D5C00082D5C0008050900082D5C000877
:1000C0002D5C00082D5C00082D5C00082D5C0008EC
:1000D0002D5C00082D5C00082D5C00081509000847
:1000E0002D5C00082D5C00082D5C00082D5C0008CC
:1000F0002D5C00082D5C00082D5C00082D5C0008BC
:100100002D5C00082D5C00082D5C00082D5C0008AB
:100110002D5C00082D5C00082D5C00082D5C00089B
:100120002D5C00082D5C00082D5C00082D5C00088B
:100130002D5C00082D5C00082D5C00082D5C00087B
:100140002D5C00082D5C00082D5C00082D5C00086B
:100150002D5C00082D5C00082D5C00082D5C00085B
:100160002D5C00082D5C00082D5C00082D5C00084B
:100170002D5C00082D5C00082D5C000800000000CC
:100180002D5C00082D5C00082D5C00082D5C00082B
:100190002D5C00082D5C00082D5C00082D5C00081B
:0C01A0002D5C00082D5C00082D5C0008A0
:1001B00010B5054C237833B9044B13B10448AFF3A1
:1001C00000800123237010BDD0000020000000003B
:1001D000E0F9000808B5034B1BB103490348AFF32E
:1001E000008008BD00000000D4000020E0F90008F5
:1001F000034613F8012B002AFBD1181A0138704767
:1002000001F0FF01102A2BDB10F0070F08D010F8C7
:10021000013B013A8B422DD010F0070F42B3F6D1CB
:10022000F0B441EA012141EA014122F007047FF0E4
:1002300000070023F0E80256083C85EA010586EA3B
:10024000010685FA47F5A3FA87F586FA47F6A5FA77
:1002500087F68EB9EED1F0BC01F0FF0102F0070283
:1002600032B110F8013B013A83EA010313B1F8D12E
:100270000020704701387047002D06BF354603380F
:10028000073815F0010F07D1013015F4807F02BF48
:10029000013015F4C03F0130F0BC0138704700BF99
:1002A0007BB972B90029BEBF00204FF0004106E0C3
:1002B00008BF00281CBF6FF000414FF0FF3000F076
:1002C000BFB9ADF1080C6DE904CE002909DB002BA4
:1002D0001ADB00F04DF8DDF804E0DDE9022304B09C
:1002E0007047404261EB4101002B1BDB00F040F8FE
:1002F000DDF804E0DDE9022304B0404261EB410196
:10030000524263EB43037047524263EB430300F0F6
:100310002FF8DDF804E0DDE9022304B0404261EB90
:1003200041017047524263EB430300F021F8DDF8CE
:1003300004E0DDE9022304B0524263EB430370475B
:1003400053B94AB9002908BF00281CBF4FF0FF313C
:100350004FF0FF3000F074B9ADF1080C6DE904CE38
:1003600000F006F8DDF804E0DDE9022304B0704790
:100370002DE9F047089D04468E46002B4DD18A4258
:10038000944669D9B2FA82F252B101FA02F3C2F18B
:10039000200120FA01F10CFA02FC41EA030E94401C
:1003A0004FEA1C48210CBEFBF8F61FFA8CF708FB3D
:1003B00016E341EA034306FB07F199420AD91CEB15
:1003C000030306F1FF3080F01F81994240F21C8147
:1003D000023E63445B1AA4B2B3FBF8F008FB10338F
:1003E00044EA034400FB07F7A7420AD91CEB0404C4
:1003F00000F1FF3380F00A81A74240F20781644494
:10040000023840EA0640E41B00261DB1D440002318
:10041000C5E900433146BDE8F0878B4209D9002D7C
:1004200000F0EF800026C5E9000130463146BDE806
:10043000F087B3FA83F6002E4AD18B4202D3824270
:1004400000F2F980841A61EB030301209E46002D1F
:10045000E0D0C5E9004EDDE702B9FFDEB2FA82F274
:10046000002A40F09280A1EB0C014FEA1C471FFAD2
:100470008CFE0126200CB1FBF7F307FB131140EAB9
:1004800001410EFB03F0884208D91CEB010103F186
:10049000FF3802D2884200F2CB804346091AA4B248
:1004A000B1FBF7F007FB101144EA01440EFB00FE1C
:1004B000A64508D91CEB040400F1FF3102D2A64581
:1004C00000F2BB800846A4EB0E0440EA03409CE720
:1004D000C6F12007B34022FA07FC4CEA030C20FACD
:1004E00007F401FA06F31C43F9404FEA1C4900FAED
:1004F00006F3B1FBF9F8200C1FFA8CFE09FB18116A
:1005000040EA014108FB0EF0884202FA06F20BD9DC
:100510001CEB010108F1FF3A80F08880884240F22C
:100520008580A8F102086144091AA4B2B1FBF9F070
:1005300009FB101144EA014100FB0EFE8E4508D96B
:100540001CEB010100F1FF346CD28E456AD90238F0
:10055000614440EA0840A0FB0294A1EB0E01A142D5
:10056000C846A64656D353D05DB1B3EB080261EB43
:100570000E0101FA07F722FA06F3F1401F43C5E91D
:10058000007100263146BDE8F087C2F12003D84053
:100590000CFA02FC21FA03F3914001434FEA1C4795
:1005A0001FFA8CFEB3FBF7F007FB10360B0C43EA87
:1005B000064300FB0EF69E4204FA02F408D91CEB37
:1005C000030300F1FF382FD29E422DD90238634435
:1005D0009B1B89B2B3FBF7F607FB163341EA0341D5
:1005E00006FB0EF38B4208D91CEB010106F1FF3824
:1005F00016D28B4214D9023E6144C91A46EA00461B
:1006000038E72E46284605E70646E3E61846F8E6AC
:100610004B45A9D2B9EB020864EB0C0E0138A3E7F5
:100620004646EAE7204694E74046D1E7D0467BE7D6
:10063000023B614432E7304609E76444023842E74E
:10064000704700BF10F8012B11F8013B012A28BFA9
:100650009A42F7D0D01A704708B50268034B9A4205
:1006600000D008BD02F062F8FBE700BF00000140C7
:1006700072B6FEE700B595B03022002108A805F05B
:1006800033FB00230393049305930693079301938D
:10069000234A116C41F080511164126C02F08052B7
:1006A0000192019A02931F4B1A6842F440421A6069
:1006B0001B6803F440430293029B012308934FF409
:1006C0008033099302230E934FF480020F92042289
:1006D0001092B422119212930323139308A801F0ED
:1006E000B1F8B0B901F072FFA8B90F230393022348
:1006F0000493002305934FF4A05306934FF48053C3
:100700000793052103A801F003FB30B915B05DF88C
:1007100004FBFFF7ADFFFFF7ABFFFFF7A9FF00BF3B
:100720000038024000700040F0B58DB000240794FE
:10073000089409940A940B940194304B1A6B42F07C
:1007400080021A631A6B02F080020192019A0294ED
:100750001A6B42F001021A631A6B02F00102029254
:10076000029A03941A6B42F002021A631A6B02F0A7
:1007700002020392039A04941A6B42F008021A636D
:100780001A6B02F008020492049A05941A6B42F064
:1007900004021A631A6B02F004020592059A069489
:1007A0001A6B42F040021A631B6B03F0400306937E
:1007B000069B134F22464FF44071384601F09AFCD5
:1007C000104D22464FF4C041284601F093FC4FF4EF
:1007D000407307930126089609940A9407A938469E
:1007E00001F08AFB4FF4C0430793089609940A94DA
:1007F00007A9284601F080FB0DB0F0BD003802408B
:1008000000000240001802400120704708B505F0C2
:100810000FFA162303604FF0FF3008BD08B54FF004
:10082000FF31FFF7F3FFFEE770B50C4616460025D3
:1008300006E0AFF30080214601F8010B01350C46BC
:10084000B542F6DB304670BD70B50C461646002545
:1008500004E014F8010BAFF300800135B542F8DB7A
:10086000304670BD08B503460D4A12685AB10C4AAD
:10087000106803440B4A11780B4A521A934206D867
:10088000074A136008BD064A08491160EFE700BE39
:1008900005F0CEF90C2303604FF0FF30F2E700BF04
:1008A000F00000200004000000000320481B01208D
:1008B0004FF0FF3070474FF400534B6000207047FB
:1008C0000120704700207047FEE7FEE7FEE7FEE7E5
:1008D000FEE7704708B5024801F08AFD08BD00BF79
:1008E0005040002008B5024801F082FD08BD00BF5D
:1008F000B040002008B5024800F0ACF908BD00BFC8
:100900005441002008B5024800F0A4F908BD00BF1A
:10091000348B002008B5024802F0B2FC08BD00BFCD
:100920001041002000B583B0002200920D4B596C9D
:1009300041F480415964596C01F48041009100995F
:100940000192196C41F0805119641B6C03F08053C3
:100950000193019B0F216FF0010001F087FE03B0AE
:100960005DF804FB0038024030B4036A23F0010351
:100970000362036A4268846924F073040D682C439F
:1009800023F0020C8B6843EA0C03104DA84203D0FD
:1009900005F58065A84205D123F00803CD682B43F7
:1009A00023F00403094DA84203D005F58065A84251
:1009B00005D122F440724D692A438D692A43426071
:1009C00084614A684263036230BC704700000140A2
:1009D00030B4036A23F480730362036A4268C46913
:1009E00024F0730C0C6844EA0C0523F400738C6843
:1009F00043EA0423114CA04203D004F58064A042D2
:100A000006D123F40063CC6843EA042323F4806313
:100A10000A4CA04203D004F58064A04207D122F41E
:100A200040524C6942EA04128C6942EA0412426064
:100A3000C5614A68C263036230BC70470000014070
:100A400030B4036A23F480530362036A4468C269C2
:100A500022F4E6420D6842EA052223F400538D6831
:100A600043EA0533094DA84203D005F58065A84245
:100A700004D124F480444D6944EA85144460C26181
:100A80004A680264036230BC704700BF0000014046
:100A900010B4036A046A24F001040462846924F037
:100AA000F00C4CEA021223F00A030B43826103624A
:100AB0005DF8044B704730B4046A24F010040462FB
:100AC0008469056A24F4407C4CEA022C2CF4704CB6
:100AD0001B039BB243EA0C0325F0A005090101F0BA
:100AE000A00129438361016230BC704710B4046ADD
:100AF00024F0100404628469036A24F4704C4CEA04
:100B0000023223F0A00343EA0113826103625DF81D
:100B1000044B704730B4046A24F480740462C469DE
:100B2000056A24F0030C4CEA020C2CF0F00C1B01BB
:100B3000DBB243EA0C0325F42065090201F42061CD
:100B40002943C361016230BC704730B4046A24F4A5
:100B500080540462C469056A24F4407C4CEA022C87
:100B60002CF4704C1B039BB243EA0C0325F4204584
:100B7000090301F420412943C361016230BC70477D
:100B8000836823F070030B4343F0070383607047CF
:100B900090F83D30DBB2012B37D1022380F83D3095
:100BA0000268D36843F00103D3600368194A934293
:100BB00020D0B3F1804F1DD0A2F57C42934219D0D2
:100BC00002F58062934215D002F58062934211D003
:100BD00002F5784293420DD002F57052934209D04B
:100BE000A2F59432934205D01A6842F001021A60CD
:100BF000002070479A6802F00702062A07D01A6898
:100C000042F001021A600020704701207047002066
:100C1000704700BF00000140704770470C2914D88E
:100C2000DFE801F0071313130A1313130D13131343
:100C300010000368586B70470368986B704703682F
:100C4000D86B70470368186C704700207047704776
:100C50007047704710B5044603681A6912F0020F16
:100C600011D0DA6812F0020F0DD06FF002021A6193
:100C70000123037703689B6913F0030F70D001F021
:100C8000CFFE0023237723681A6912F0040F12D0D5
:100C9000DA6812F0040F0ED06FF004021A6102231A
:100CA000237723689B6913F4407F5FD0204601F0CF
:100CB000B7FE0023237723681A6912F0080F12D0B9
:100CC000DA6812F0080F0ED06FF008021A610423E0
:100CD00023772368DB6913F0030F4ED0204601F021
:100CE0009FFE0023237723681A6912F0100F12D099
:100CF000DA6812F0100F0ED06FF010021A6108239C
:100D000023772368DB6913F4407F3DD0204601F050
:100D100087FE0023237723681A6912F0010F03D09E
:100D2000DA6812F0010F36D123681A6912F0800FC9
:100D300003D0DA6812F0800F34D123681A6912F0F8
:100D4000400F03D0DA6812F0400F32D123681A69DD
:100D500012F0200F03D0DA6812F0200F30D110BD4E
:100D6000FFF775FF2046FFF773FF8AE72046FFF77E
:100D70006EFF2046FFF76CFF9BE72046FFF767FFFB
:100D80002046FFF765FFACE72046FFF760FF2046EF
:100D9000FFF75EFFBDE76FF001021A612046FFF723
:100DA0005BFCC1E76FF080021A61204600F048FD4D
:100DB000C3E76FF040021A612046FFF74AFFC5E71C
:100DC0006FF020021A61204600F039FDC7E70000ED
:100DD0000368304A904212D0B0F1804F0FD0A2F594
:100DE0007C4290420BD002F58062904207D002F51F
:100DF0008062904203D002F57842904203D123F002
:100E000070034A681343234A90422AD0B0F1804FBE
:100E100027D0A2F57C42904223D002F58062904216
:100E20001FD002F5806290421BD002F578429042BA
:100E300017D002F57052904213D002F580629042B2
:100E40000FD002F5806290420BD0A2F5983290420A
:100E500007D002F58062904203D002F58062904292
:100E600003D123F44073CA68134323F080034A6913
:100E7000134303608B68C3620B688362054B98421F
:100E800003D003F58063984201D10B69036301230A
:100E9000436170470000014040B310B5044690F82C
:100EA0003D30F3B1022384F83D30214651F8040B64
:100EB000FFF78EFF012384F8463084F83E3084F833
:100EC0003F3084F8403084F8413084F8423084F870
:100ED000433084F8443084F8453084F83D300020B5
:100EE00010BD80F83C3004F003FBDBE701207047C5
:100EF00040B310B5044690F83D30F3B1022384F8B6
:100F00003D30214651F8040BFFF762FF012384F8BE
:100F1000463084F83E3084F83F3084F8403084F81E
:100F2000413084F8423084F8433084F8443084F807
:100F3000453084F83D30002010BD80F83C30FFF78C
:100F40006BFEDBE70120704740B310B5044690F814
:100F50003D30F3B1022384F83D30214651F8040BB3
:100F6000FFF736FF012384F8463084F83E3084F8DA
:100F70003F3084F8403084F8413084F8423084F8BF
:100F8000433084F8443084F8453084F83D30002004
:100F900010BD80F83C30FFF740FEDBE701207047D2
:100FA000002856D0F8B50D46044690F83D30002B89
:100FB0004AD0022384F83D302268936823F48043AA
:100FC00023F007039360214651F8040BFFF700FF5D
:100FD00021688A688B690E6A2868104323F4407C74
:100FE0002CF0030CAA68AB6942EA032343EA0C0322
:100FF00023F47C4323F0FC03EA69EF6847EA022C00
:101000004CEA030C2A6A13032A6943EA021343EAEF
:101010000C0326F0AA066A686D6942EA051232439B
:10102000886021688B6123681A62012384F8463046
:1010300084F83E3084F83F3084F8423084F84330FE
:1010400084F83D300020F8BD80F83C3004F018FAF8
:10105000AFE701207047000030B4036A23F01003AB
:101060000362036A4468826922F4E6420D6842EA38
:10107000052223F020038D6843EA0513114DA84291
:1010800003D005F58065A84206D123F08003CD6822
:1010900043EA051323F040030A4DA84203D005F5A7
:1010A0008065A84207D124F440644D6944EA850470
:1010B0008D6944EA8504446082614A688263036200
:1010C00030BC70470000014038B590F83C30012B2F
:1010D00066D004460D46012380F83C300C2A5AD8CD
:1010E000DFE802F0075959591B59595930595959D4
:1010F00044000068FFF738FC2268936943F0080356
:1011000093612268936923F00403936122689369D1
:1011100029690B43936100203EE00068FFF79CFFC4
:101120002268936943F4006393612268936923F40E
:101130008063936122689369296943EA012393617B
:10114000002029E00068FFF743FC2268D36943F0E0
:101150000803D3612268D36923F00403D3612268B2
:10116000D36929690B43D361002015E00068FFF7BC
:1011700067FC2268D36943F40063D3612268D369B2
:1011800023F48063D3612268D369296943EA012388
:10119000D361002000E00120002384F83C3038BDFA
:1011A0000220FCE770B49446046A24F0010404624F
:1011B0008469066A184DA8421CD0B0F1804F19D03E
:1011C000164A904216D002F58062904212D002F583
:1011D000806290420ED002F5784290420AD002F529
:1011E0007052904206D0A2F59432904202D044F060
:1011F000010203E024F0030242EA0C0222F0F002B2
:101200001B01DBB2134326F00A0201F00A0111436D
:101210008361016270BC704700000140000400401F
:1012200038B590F83C30012B5AD004460D460123C6
:1012300080F83C3052B1042A1AD0082A2BD00C2A4C
:101240003BD00120002384F83C3038BDCB684A688D
:1012500009680068FFF7A6FF2268936923F00C0372
:10126000936122689369A9680B4393610020E9E7C1
:10127000CB684A6809680068FFF71DFC226893691B
:1012800023F44063936122689369A96843EA0123C8
:1012900093610020D6E7CB684A6809680068FFF7C9
:1012A00039FC2268D36923F00C03D3612268D36927
:1012B000A9680B43D3610020C4E7CB684A6809687A
:1012C0000068FFF742FC2268D36923F44063D361CE
:1012D0002268D369A96843EA0123D3610020B1E7FA
:1012E0000220B2E710B4846824F47F4C42EA03225F
:1012F0000A4342EA0C0282605DF8044B704790F8A2
:101300003C30012B78D010B50446012380F83C30E6
:10131000022380F83D300268936823F47F4323F072
:10132000770393600B68602B4CD029D8402B54D0A6
:101330000CD9502B22D1CA6849680068FFF7A8FB76
:1013400050212068FFF71CFC002005E0202B0DD069
:1013500009D9302B0AD00120012384F83D30002325
:1013600084F83C3010BD0BB1102B05D11946206814
:10137000FFF706FC0020EFE70120EDE70120EBE797
:10138000B3F5805F34D0B3F5005F0CD1CB684A6809
:1013900089680068FFF7A6FF2268936843F48043DA
:1013A00093600020D8E7702B24D1CB684A68896805
:1013B0000068FFF797FF2268936843F07703936014
:1013C0000020C9E7CA6849680068FFF78FFB602101
:1013D0002068FFF7D5FB0020BEE7CA6849680068AF
:1013E000FFF756FB40212068FFF7CAFB0020B3E758
:1013F0000020B1E70120AFE70220704701F01F0194
:10140000012303FA01FC036A23EA0C030362036A63
:1014100002FA01F10B4303627047000010B5044665
:101420000846002942D194F83E30DBB2013B18BF98
:101430000123002B6ED1002851D1022384F83E30C5
:10144000012201462068FFF7D9FF2368334A9342FF
:1014500003D002F58062934203D15A6C42F40042F9
:101460005A6423682D4A934249D0B3F1804F46D045
:10147000A2F57C42934242D002F5806293423ED074
:1014800002F5806293423AD002F57842934236D018
:1014900002F57052934232D0A2F5943293422ED08C
:1014A0001A6842F001021A60002032E0042908D0D4
:1014B00008290DD094F84130DBB2013B18BF01235D
:1014C000B7E794F83F30DBB2013B18BF0123B0E728
:1014D00094F84030DBB2013B18BF0123A9E7042890
:1014E00005D0082807D0022384F84130A8E702235A
:1014F00084F83F30A4E7022384F84030A0E79A68DC
:1015000002F00702062A07D01A6842F001021A60A8
:10151000002010BD0120FCE70020FAE70000014098
:1015200010B504460B4609BB90F83E00C0B26BBB39
:1015300094F84220D2B2012840F0A480012A40F061
:10154000A2809BBB022184F83E10002B3ED10221D9
:1015500084F842100C2B00F29780DFE803F04795E7
:101560009595769595957C9595958200042905D05D
:10157000082907D090F84100C0B2D8E790F83F00A2
:10158000C0B2D4E790F84000C0B2D0E7042B05D039
:10159000082B07D094F84520D2B2CCE794F843202A
:1015A000D2B2C8E794F84420D2B2C4E7042B05D0E5
:1015B000082B07D0022184F84110C6E7022184F8E5
:1015C0003F10C2E7022184F84010BEE7042B05D08B
:1015D000082B07D0022184F84510BBE7022184F8CC
:1015E0004310B7E7022184F84410B3E72168CA68C2
:1015F00042F00202CA60012219462068FFF7FEFE8F
:101600002368234A934232D0B3F1804F2FD0A2F502
:101610007C4293422BD002F58062934227D002F5A0
:101620008062934223D002F5784293421FD002F5A4
:10163000705293421BD0A2F59432934217D01A688D
:1016400042F001021A6000201DE02168CA6842F0E1
:101650000402CA60CFE72168CA6842F00802CA6083
:10166000C9E72168CA6842F01002CA60C3E79A68F5
:1016700002F00702062A09D01A6842F001021A6035
:10168000002000E0012010BD1046FCE70020FAE732
:101690000000014038B5044690F83E00C0B294F80E
:1016A0003F3094F84220D2B294F843C00D46B1B90D
:1016B000012849D1012A48D1022384F83E3084F818
:1016C00042307DB3042D39D0012200212068FFF77C
:1016D00095FE012204212068FFF790FE27E0DBB28F
:1016E0005FFA8CFC042912D0012833D1012B2CD1B4
:1016F000012A31D1BCF1010F30D1022384F83E30F0
:1017000084F83F3084F8423084F84330D9E7012B25
:101710001CD1BCF1010F1BD1022384F83F3084F8A7
:101720004330CEE7012200212068FFF767FE2268E0
:10173000136843F001031360002006E00122042136
:101740002068FFF75BFEF2E7012038BD0120FCE7CF
:101750001846FAE70120F8E71846F6E71046F4E7DE
:1017600090F83C30012B3DD010B4012380F83C3080
:10177000022380F83D3003685A689C6822F0700CA0
:101780000A6842EA0C025A600368174A93421AD068
:10179000B3F1804F17D0A2F57C42934213D002F5EB
:1017A000806293420FD002F5806293420BD002F523
:1017B0007842934207D002F57052934203D0A2F5CB
:1017C0009432934204D124F080044A6814439C600C
:1017D000012380F83D30002380F83C3018465DF846
:1017E000044B7047022070470000014090F83C30E5
:1017F000012B22D0012380F83C30CB6823F44073C6
:101800008A68134323F480634A68134323F4006314
:101810000A68134323F480530A69134323F40053E3
:101820004A69134323F48043CA691343026853642B
:10183000002380F83C3018467047022070477047FC
:1018400070470000002800F0E08170B582B00446C7
:10185000036813F0010F3BD09F4B9B6803F00C0310
:10186000042B2CD09C4B9B6803F00C03082B21D03D
:101870006368B3F5803F4FD0B3F5A02F52D0964B9D
:101880001A6822F480321A601A6822F480221A60E0
:101890006368002B50D000F055FF05468E4B1B6847
:1018A00013F4003F14D100F04DFF401B6428F5D91C
:1018B0000320B1E1884B5B6813F4800FD8D0864BCE
:1018C0001B6813F4003F03D06368002B00F09F8176
:1018D000236813F0020F54D07F4B9B6813F00C0F5A
:1018E0003ED07D4B9B6803F00C03082B33D0E3689C
:1018F000002B68D0794B01221A6000F023FF0546C7
:10190000754B1B6813F0020F54D100F01BFF401BF6
:101910000228F5D903207FE16F4A136843F480332E
:101920001360B5E76C4B1A6842F480221A601A689B
:1019300042F480321A60ABE700F004FF0546664BC4
:101940001B6813F4003FC3D000F0FCFE401B64286A
:10195000F5D9032060E1604B5B6813F4800FC6D1BA
:101960005D4B1B6813F0020F03D0E368012B40F0BE
:101970005081594A136823F0F803216943EAC103EF
:101980001360236813F0080F42D063696BB3534BA5
:101990000122C3F8802E00F0D5FE05464E4B5B6F4A
:1019A00013F0020F34D100F0CDFE401B0228F5D910
:1019B000032031E1484A136823F0F803216943EA20
:1019C000C1031360DDE7454B00221A6000F0BAFE48
:1019D0000546414B1B6813F0020FD2D000F0B2FE57
:1019E000401B0228F5D9032016E13C4B0022C3F826
:1019F000802E00F0A7FE0546374B5B6F13F0020FF9
:101A000006D000F09FFE401B0228F5D9032003E119
:101A1000236813F0040F77D02F4B1B6C13F0805FFB
:101A200033D1002301932C4B1A6C42F080521A647C
:101A30001B6C03F080530193019B0125284B1B680D
:101A400013F4807F23D0A368012B34D0052B38D02A
:101A5000214B1A6F22F001021A671A6F22F004025A
:101A60001A67A368002B3DD000F06CFE06461A4BA7
:101A70001B6F13F0020F46D100F064FE801B41F291
:101A800088339842F3D90320C6E00025D6E7144AEC
:101A9000136843F48073136000F054FE0646104B45
:101AA0001B6813F4807FCED100F04CFE801B02280F
:101AB000F5D90320B0E0084A136F43F00103136720
:101AC000CFE7054B1A6F42F004021A671A6F42F013
:101AD00001021A67C5E700BF003802400000474214
:101AE0000070004000F02EFE0646524B1B6F13F0B4
:101AF000020F08D000F026FE801B41F28833984286
:101B0000F3D9032088E0EDB9A369002B00F08380AE
:101B1000484A926802F00C02082A51D0022B17D0D2
:101B2000454B00221A6600F00DFE0446414B1B682F
:101B300013F0007F42D000F005FE001B0228F5D90B
:101B4000032069E03B4A136C23F080531364DBE706
:101B5000394B00221A6600F0F5FD0546354B1B682F
:101B600013F0007F06D000F0EDFD401B0228F5D9F0
:101B7000032051E0E369226A1343626A43EA821355
:101B8000A26A5208013A43EA0243E26A43EA026364
:101B9000284A5360284B01221A6600F0D3FD044600
:101BA000244B1B6813F0007F06D100F0CBFD001B17
:101BB0000228F5D903202FE000202DE000202BE0A3
:101BC000012B2BD01B4B5B6803F48001E26991422F
:101BD00026D103F03F02216A8A4223D1616A47F687
:101BE000C0721A40B2EB811F1ED103F44031A26AC9
:101BF0005208013AB1EB024F18D103F07063E26A68
:101C0000B3EB026F14D1002006E0012070470120E1
:101C100002E0012000E0002002B070BD0120FBE7DF
:101C20000120F9E70120F7E70120F5E70120F3E7BC
:101C30000120F1E7003802400000474208B5314B6F
:101C40009B6803F00C03042B57D0082B57D12D4B66
:101C50005A6802F03F025B6813F4800F2AD0294BC8
:101C60005968C1F3881C4FEA4C11B1EB0C006EEBC4
:101C70000E0E4FEA8E1343EA90638101091A63EB5B
:101C80000E03DB0043EA5173C90011EB0C0C43F166
:101C90000003590200234FEA4C2041EADC51FEF7D1
:101CA0004FFB184B5B68C3F3014301335B00B0FB90
:101CB000F3F025E0134B5968C1F3881C4FEA4C112F
:101CC000B1EB0C006EEB0E0E4FEA8E1343EA9063FD
:101CD0008101091A63EB0E03DB0043EA5173C9006B
:101CE00011EB0C0C43F10003990200234FEA8C2006
:101CF00041EA9C51FEF724FBD3E7034800E0034888
:101D000008BD00BF0038024000127A000024F40031
:101D1000002800F09B8070B50D4604464F4B1B68B1
:101D200003F00F038B4208D2CBB24C4A13701368F6
:101D300003F00F038B4240F08B80236813F0020FF7
:101D400017D013F0040F04D0454A936843F4E053CE
:101D50009360236813F0080F04D0414A936843F45A
:101D6000604393603E4A936823F0F003A1680B43FD
:101D70009360236813F0010F32D06368012B21D0E8
:101D80009A1E012A25D9364A126812F0020F61D034
:101D900033498A6822F0030213438B6000F0D2FCBF
:101DA00006462F4B9B6803F00C036268B3EB820F6F
:101DB00016D000F0C7FC801B41F288339842F0D95E
:101DC000032042E0264A126812F4003FE0D10120CD
:101DD0003BE0234A126812F0007FD9D1012034E0A1
:101DE0001E4B1B6803F00F03AB4207D9EAB21B4B33
:101DF0001A701B6803F00F03AB422DD1236813F058
:101E0000040F06D0164A936823F4E053E1680B43AD
:101E10009360236813F0080F07D0114A936823F4E6
:101E20006043216943EAC1039360FFF707FF0C4B4E
:101E30009B68C3F303130B4AD35CD8400A4B18606A
:101E40000A4B186800F044FF002070BD0120704765
:101E50000120FAE70120F8E70120F6E7003C024004
:101E6000003802400CFA00080C0000200800002096
:101E7000014B1868704700BF0C00002008B5FFF741
:101E8000F7FF044B9B68C3F38223034AD35CD8401B
:101E900008BD00BF003802401CFA000808B5FFF773
:101EA000E7FF044B9B68C3F34233034AD35CD8403B
:101EB00008BD00BF003802401CFA00080F23036071
:101EC0000B4B9A6802F0030242609A6802F0F0023B
:101ED00082609A6802F4E052C2609B68DB0803F4F7
:101EE000E0530361034B1B6803F00F030B60704763
:101EF00000380240003C024000230F2B00F2F1802A
:101F000070B582B061E085685E000324B44025EAC4
:101F10000405CC68B4402C438460456825EA02057A
:101F20004C68C4F300129A402A4342605BE0DC082C
:101F3000083450F8246003F0070295000F22AA40ED
:101F400026EA020E0A69AA4042EA0E0240F824205C
:101F50005DE0092200E0002202FA0EF22A43023478
:101F6000604D45F82420604A94686FEA0C0224EA28
:101F70000C054E6816F4801F01D04CEA04055A4C3B
:101F8000A560E46802EA04054E6816F4001F01D05B
:101F90004CEA0405544CE560646802EA04054E68A6
:101FA00016F4003F01D04CEA04054F4C65602468EC
:101FB00022404D6815F4803F01D04CEA04024A4C9F
:101FC000226001330F2B00F28A8001229A400C68B4
:101FD00004EA020C32EA0404F3D14C6804F003046E
:101FE000013C012C8FD94A6802F00302032A09D070
:101FF000C4685D000322AA4024EA02048A68AA4059
:102000002243C2604A6802F00302022A8FD00468A9
:102010004FEA430E032202FA0EF224EA02044A684F
:1020200002F0030202FA0EF2224302604A6812F43E
:10203000403FC6D0002201922C4A546C44F48044A4
:102040005464526C02F480420192019A9C08A51CCF
:10205000244A52F8255003F003024FEA820E0F2261
:1020600002FA0EF225EA0205214A90423FF473AFCC
:1020700002F58062904222D002F58062904220D028
:1020800002F5806290421ED002F5806290421CD020
:1020900002F5806290421AD002F58062904218D018
:1020A00002F58062904216D002F58062904214D010
:1020B00002F5806290423FF44CAF0A224CE70122C5
:1020C0004AE7022248E7032246E7042244E70522C2
:1020D00042E7062240E707223EE708223CE702B03B
:1020E00070BD704700380140003C0140003802409C
:1020F000000002400AB181617047090481617047A4
:1021000030B405682C6824F480242C600468636073
:102110008368402B05D0036899600368DA6030BC9F
:10212000704703689A600368D960F8E710B40368E1
:10213000D9B210390C4AA2FB014212090B4CA25C25
:10214000C2655F2909D923F47F7323F003030433A5
:102150008365806D5DF8044B704723F47F7323F033
:1021600003038365F5E700BFABAAAAAA04FA000837
:10217000836A826992B9012B0AD0022B02D00BB17B
:1021800000207047C36A13F0807F28D10020704779
:10219000C36AB3F1C07F24D000207047B2F5005F5E
:1021A00009D0022B25D9032B25D1C36A13F0807FD8
:1021B00023D100207047032B03D8DFE803F0140479
:1021C000140A00207047C36A13F0807F0DD10020ED
:1021D0007047C36AB3F1C07F09D000207047012067
:1021E000704701207047012070470120704701208F
:1021F00070470120704700207047012070470000A1
:1022000070B5044600F09EFA002C5BD00546022310
:1022100084F83530002384F834302268136823F0C2
:102220000103136023681A6812F0010F0AD000F04E
:1022300089FA431B052BF5D920236365032084F815
:10224000350070BD1A68204810406168A2680A43D2
:10225000E1680A4321690A4361690A43A1690A43A3
:10226000E1690A43216A0A430243616A04291ED0D4
:102270001A602668756925F00705636A1D43042BFB
:1022800007D1A36A1D43E36A1BB12046FFF770FF25
:1022900090B975612046FFF749FFE26D3F239340F7
:1022A000836000206065012384F83530C9E7E16A66
:1022B000206B01430A43DBE740236365012084F878
:1022C0003500BEE70120BCE73F8010F038B504467A
:1022D000856D90F8340001282BD0012084F834005B
:1022E00094F83500C0B2012804D0002384F83430BB
:1022F000022038BD022084F83500002060652046A9
:10230000FFF7FEFEE26D3F239340AB602268136847
:1023100043F016031360236C23B12268136843F063
:10232000080313602268136843F001031360002060
:10233000DFE70220DDE770B50446866D00F002FAA3
:1023400094F83530DBB2022B06D08023636500237E
:1023500084F83430012070BD05462268136823F0EC
:10236000160313602268536923F080035361236CC2
:10237000E3B12268136823F008031360226813682E
:1023800023F00103136023681B6813F0010F11D0C1
:1023900000F0D8F9431B052BF5D9202363650320F2
:1023A00084F83500002384F83430D4E7A36C002B84
:1023B000DFD1E3E7E26D3F239340B360012384F86C
:1023C0003530002084F83400C5E790F83530DBB2B2
:1023D000022B03D08023436501207047052380F83A
:1023E00035300268136823F0010313600020704742
:1023F000F0B583B0044600230193724B1D68724B05
:10240000A3FB0535AD0A876D3E68C26D0823934076
:10241000334210D003681A6812F0040F0BD01A6808
:1024200022F004021A60C26D08239340BB60436D22
:1024300043F001034365E26D01239340334209D029
:102440002268526912F0800F04D0BB60636D43F0C4
:1024500002036365E26D04239340334209D022688E
:10246000126812F0020F04D0BB60636D43F00403E6
:102470006365E26D10239340334224D022681268D2
:1024800012F0080F1FD0BB6023681A6812F4802F67
:102490000DD01B6813F4002F04D1236C9BB1204690
:1024A000984710E0A36C73B1204698470BE01A6878
:1024B00012F4807F03D11A6822F008021A60236C9C
:1024C0000BB120469847E26D20239340334255D00C
:1024D0002268126812F0100F50D0BB6094F83530AB
:1024E000DBB2052B0ED023681A6812F4802F33D08C
:1024F0001B6813F4002F2AD1636C002B3ED02046BA
:1025000098473BE02268136823F0160313602268A3
:10251000536923F080035361236CA3B122681368CD
:1025200023F008031360E26D3F239340BB60012357
:1025300084F83530002384F83430236D002B3FD0ED
:10254000204698473CE0A36C002BE7D1EBE7E36B18
:10255000A3B12046984711E01A6812F4807F09D190
:102560001A6822F010021A60012384F83530002323
:1025700084F83430E36B0BB120469847636DFBB1B0
:10258000636D13F0010F17D0052384F835302268EE
:10259000136823F001031360019B01330193AB42E5
:1025A00004D823681B6813F0010FF5D1012384F8C8
:1025B0003530002384F83430E36C0BB12046984763
:1025C00003B0F0BD0C000020B5814E1B10B582B0E9
:1025D00000230193194B1A6C42F080521A641B6C51
:1025E00003F080530193019B154B01221A6400F004
:1025F000A9F80446134B5B6813F4803F08D100F040
:10260000A1F8001BB0F57A7FF4D9032002B010BD09
:102610000B4B01225A6400F095F80446094B5B68A5
:1026200013F4003F07D100F08DF8001BB0F57A7F5E
:10263000F4D90320EAE70020E8E700BF00380240B1
:1026400000000E4200700040074AD36823F4E063A4
:102650001B041B0C000200F4E060034343F0BF6363
:1026600043F40033D360704700ED00E000B5194B30
:10267000DB68C3F30223C3F1070CBCF1040F28BFCE
:102680004FF0040C03F1040EBEF1060F18D9033B02
:102690004FF0FF3E0EFA0CFC21EA0C0199400EFAB5
:1026A00003F322EA0303194300280BDB0901C9B233
:1026B00000F1604000F5614080F800135DF804FB14
:1026C0000023E5E700F00F000901C9B2024B1954DD
:1026D000F4E700BF00ED00E014ED00E0002807DBA8
:1026E00000F01F02400901239340024A42F82030C3
:1026F000704700BF00E100E008B50B4B1A6842F4D8
:1027000000721A601A6842F480621A601A6842F411
:1027100080721A600320FFF797FF0F2000F0D8FAAD
:10272000FEF700F9002008BD003C0240034A116892
:10273000034B1B780B441360704700BFF40000206C
:1027400004000020014B1868704700BFF40000200F
:10275000034AD2F8883043F47003C2F888307047D7
:1027600000ED00E010B5FFF7C7FFFDF783FFFDF7B1
:10277000DBFF00F0EFF900F00FFA02F0F7FD02F0D6
:102780002BFE02F035FF3C210B48FEF783FF0021B2
:102790000A48FEF7C5FE0A4C00212046FEF73EFE21
:1027A00004212046FEF73AFE02F050FA00F0B6F996
:1027B00002F05EFA002010BDEC8A0020348B00206D
:1027C0007C8B002000B5A7B0304B0193304B0093B9
:1027D000304B314A3149012005F036F821A804F088
:1027E00003FE2F4B21932F4B22932F4B23932F4BE1
:1027F000249321A804F006FE002842D002A804F089
:1028000021FE0DF1640E0DF1080CBCE80F00AEE8DE
:102810000F00DCF80030CEF8003019AB0022114672
:102820000BA804F01BFD0BAB214A224909A804F0B8
:1028300063FD05F057FC02461F4B09A908A804F0E8
:1028400097FD1EA805F03CFC802003F02FFA1E9097
:1028500080232093194B1B880093194B1B68194A3E
:1028600020991E9803F050FB1E98FDF7C1FC1F90A5
:1028700000221EA908A804F0CDFC642002F072FA20
:10288000E8E73B21104803F017FBB7E7655B00085A
:10289000275B0008195B0008015B0008104100205D
:1028A00095590008B9590008D9590008195A000863
:1028B000A80101084CFA000858FA0008FC000020A2
:1028C000F800002068FA000824FA000800B58DB06E
:1028D000114B0493114B03934FF4007302934FF485
:1028E000807301930E4B0093042300220D4906A828
:1028F00000F01EF806A800F02BF806A800F064F817
:10290000094B186006A800F085F8084B1880C8210C
:1029100006A800F02AF8F0E7348B0020EC8A0020AB
:10292000000002407C8B0020F8000020FC0000200A
:10293000016000998160BDF804108181BDF8081024
:10294000C18102714371039B0361049B4361704722
:1029500010B50446012281898068FFF7CBFB012274
:10296000E189A068FFF7C6FB10BD03794BB9036886
:102970001B6859634379A3B903681B6800225A6333
:102980007047042B05D0082B07D003681B68196417
:10299000F0E703681B689963ECE703681B68D96379
:1029A000E8E7042B06D0082B09D003681B68002237
:1029B0001A64704703681B6800229A6370470368B3
:1029C0001B680022DA63704703691B685A6A134662
:1029D000002A1BDB9B10A3F500530D4A10681B1A3D
:1029E00003F500525142C2F30D02C1F30D0158BF6D
:1029F0004A42A2F5005113F5005F01DA02F50051D9
:102A00000844034B186000F500507047D31CE1E701
:102A100004010020014B1888704700BF0801002006
:102A2000354B984200D0704710B50446037F012B08
:102A300000D010BD314B1B7883B901224FF40051F7
:102A40002F48FFF757FB00212046FEF7E7F880B23A
:102A50002C4B1880294B01221A70EAE700224FF410
:102A600000512748FFF746FB00212046FEF7D6F825
:102A700080B2254B18801A8892B2224B1B889BB2D9
:102A80009A4226D9204B1B889BB21E4A128892B2CA
:102A90009B1A1E4A13801D4B1B884FF47A7202FB4F
:102AA00003F307EE903AF8EEE77A9FED197A67EEB6
:102AB000877ADFED186A86EEA77ABCEEC77A164BE6
:102AC00017EE102A1A802268002353620B4A1370F3
:102AD000AFE70C4B1A8892B20B4B1B889BB29A4201
:102AE000D9D9094B1B889BB2064A128892B29B1A0D
:102AF000013B064A1380CEE7348B00200001002002
:102B0000001802400A0100200C010020FE000020F5
:102B10006F12033A00606A470801002008B5074AAF
:102B20000021074802F0C0F8064B1860064A002151
:102B3000064802F0B9F8064B186008BDC0FA000854
:102B4000C52700086C1100209CFA0008CD28000859
:102B50006C01002010B582B0002401940D4B1A6B5B
:102B600042F400121A631B6B03F400130193019BE0
:102B7000224605210C20FFF779FD0C20FFF7AEFD62
:102B8000224605210E20FFF771FD0E20FFF7A6FD5E
:102B900002B010BD0038024008B50A480A4B036075
:102BA0004FF4E133436000238360C36003610C2270
:102BB00042618361C36100F0BFF900B908BDFDF750
:102BC00057FDFBE7104100200048004030B589B0B8
:102BD0000023039304930593069307930268364BEF
:102BE0009A4201D009B030BD04460025019503F595
:102BF000F8331A6C42F480221A641A6C02F48022B0
:102C00000192019A02951A6B42F002021A631B6B41
:102C100003F002030293029B4FF4406303930223E9
:102C20000493032306930723079303A92348FFF77D
:102C300063F92348234B03604FF0006343608560D2
:102C4000C5604FF480630361456185614FF4807313
:102C5000C3614FF4403303624562FFF7D1FA28BBEA
:102C6000174BA3639C631848184B03604FF0006335
:102C70004360402383600023C3604FF4806202619D
:102C800043618361C3614FF4403202624362FFF7E4
:102C9000B7FA70B90C4B63639C63002205212720AF
:102CA000FFF7E4FC2720FFF719FD9BE7FDF7E0FCA9
:102CB000D6E7FDF7DDFCEDE70048004000040240E8
:102CC0005040002028600240B04000205860024080
:102CD00010B588B0014600221920FFF7C7FC192063
:102CE000FFF7FCFC00240194144B5A6C42F00102E3
:102CF0005A645B6C03F001030193019B02A903A8D2
:102D0000FFF7DCF8FFF7CAF843000D48A0FB0323E8
:102D10009B0C013B0B480C4A026040F2E732C26058
:102D2000436004618460FEF7B7F810B1012008B079
:102D300010BD0448FDF72CFFF9E700BF0038024042
:102D400083DE1B435441002000000140026802F171
:102D50000C0353E8003F23F0C0030C3242E800317B
:102D60000029F3D1202380F83D307047026802F13A
:102D70000C0353E8003F23F490730C3242E8003117
:102D80000029F3D1026802F1140353E8003F23F055
:102D90000103143242E800310029F3D1036B012B07
:102DA00005D0202380F83E3000230363704702687B
:102DB00002F10C0353E8003F23F010030C3242E809
:102DC00000310029F3D1ECE790F83D30DBB2212B44
:102DD00001D0022070478368B3F5805F17D0036A83
:102DE0005A1C02621A7803685A60C38C9BB2013B7A
:102DF0009BB2C3844BB90268D36823F08003D360CD
:102E00000268D36843F04003D36000207047036931
:102E1000002BE4D1036A1B880268C3F308035360E4
:102E2000036A02330362E0E738B5044602681369B7
:102E300023F44053C1680B43136183680269134351
:102E400042691343C2691A430168CB6823F41643ED
:102E500023F00C031343CB600268536923F44073DF
:102E600081690B4353610368314A934206D002F5EE
:102E70008062934202D0FFF701F801E0FFF70EF8FD
:102E8000E369B3F5004F29D00021031849411B180D
:102E900041F10001C90041EA5371DB001818636871
:102EA0004FEA83024FEA937341F10001FDF748FABC
:102EB000204DA5FB00325109642303FB11031B01C4
:102EC0003233A5FB03235B0903F0F00202EB01128E
:102ED00003F00F03216813448B6038BD00230218F0
:102EE00043EB0301121841F10001C90041EA52719C
:102EF000D200101841F10001626892185B41FDF7A1
:102F00001FFA0C4DA5FB00325109642303FB11038A
:102F1000DB003233A5FB03235B095A0002F4F8728D
:102F200002EB011203F00703216813448B60D4E71E
:102F3000001001401F85EB5158B310B5044690F8BE
:102F40003D300BB3242384F83D302268D36823F44A
:102F50000053D3602046FFF767FF2268136923F40C
:102F6000904313612268536923F02A035361226856
:102F7000D36843F40053D36000202064202384F8F6
:102F80003D3084F83E3010BD80F83C30FFF71EFE27
:102F9000D8E701207047000038B590F83D30DBB22B
:102FA000202B38D10446002937D0002A37D090F89A
:102FB0003C30012B35D0012380F83C300162828403
:102FC000C28400250564212380F83D30436B1648F8
:102FD000D863636B15481864636B1548D864636BDA
:102FE0001D6520681346021D606BFFF76FF92368AB
:102FF0006FF040021A6084F83C50226802F114031A
:1030000053E8003F43F08003143242E800310029C6
:10301000F3D1002000E0022038BD0120FCE70120B0
:10302000FAE70220F8E700BFBB30000823310008B0
:103030003331000810B5044603685A6990F83D30F2
:10304000DBB2212B0AD023685A6902F0400294F8BF
:103050003E30DBB2222B19D0002010BD02F08002DE
:10306000002AF0D0226802F1140353E8003F23F055
:103070008003143242E800310029F3D1606B08B1BB
:10308000FFF759F92046FFF761FEDCE7002AE3D09D
:10309000226802F1140353E8003F23F04003143286
:1030A00042E800310029F3D1A06B08B1FFF743F9E2
:1030B0002046FFF75BFECFE7704708B50346806BFD
:1030C0001B681B6813F4807F1AD10023C384026835
:1030D00002F1140353E8003F23F08003143242E866
:1030E00000310029F3D1026802F10C0353E8003FDC
:1030F00043F040030C3242E800310029F3D108BD0F
:10310000FFF7DAFFFBE708B50168CA6822F0400262
:10311000CA60202280F83D20FFF7CEFF002008BDC6
:10312000704708B5806BFFF7FBFF08BD704770471D
:10313000704710B5846B23685A6994F83D30DBB250
:10314000212B10D023685A6902F0400294F83E30D7
:10315000DBB2222B11D0236C43F0100323642046F2
:10316000FFF7E6FF10BD02F08002002AEAD000233C
:10317000E3842046FFF7EAFDE4E7002AEBD00023D2
:10318000E3852046FFF7F2FDE5E708B5806B0023F5
:10319000C385C384FFF7CCFF08BD704790F83E306D
:1031A000DBB2222B67D18368B3F5805F4DD0826A92
:1031B000B3F5805F04D0002B54D10369002B51D1AB
:1031C00003685B681370836A01338362C38D9BB2AB
:1031D000013B9BB2C385002B4FD100B583B0026881
:1031E000D36823F02003D3600268D36823F480738C
:1031F000D3600268536923F001035361202380F8F0
:103200003E30036B012B33D100230363026802F1CC
:103210000C0353E8003F23F010030C3242E8003166
:103220000029F3D103681A6812F0100F06D00022AB
:1032300001921A6801925B680193019B818DFFF7EF
:10324000ACFF002003B05DF804FB0269002AAED198
:10325000826A03685B68C3F308031380836A0233DE
:103260008362B3E703685B6803F07F031370AAE728
:10327000FFF75CFFE5E70220704700207047000081
:1032800030B583B0044602681368D068516913F002
:103290000F0505D113F0200F02D010F0200F19D127
:1032A0002DB111F0010119D110F4907F16D1216BCD
:1032B00001297DD013F0800F03D010F0800F40F073
:1032C000158113F0400F03D010F0400F40F0128131
:1032D00003B030BD2046FFF761FFF9E713F0010F9F
:1032E00006D010F4807F03D0226C42F001022264E9
:1032F00013F0040F04D019B1226C42F002022264D0
:1033000013F0020F04D019B1226C42F004022264BF
:1033100013F0080F07D010F0200F00D119B1226C64
:1033200042F008022264226C002AD1D013F0200F50
:1033300002D010F0200F29D123685B6903F040030D
:10334000226C12F0080F00D163B32046FFF70EFD88
:1033500023685B6913F0400F20D0226802F1140348
:1033600053E8003F23F04003143242E800310029C3
:10337000F3D1A36B73B1614A1A65A06BFFF725F80F
:103380000028A5D0A06B036D9847A1E72046FFF762
:1033900005FFD1E72046FFF7CBFE99E72046FFF770
:1033A000C7FE95E72046FFF7C3FE002323648FE79F
:1033B00013F0100F3FF47EAF10F0100F3FF47AAF10
:1033C000002301931368019353680193019B536990
:1033D00013F0400F50D0A26B13685B689BB2002BB8
:1033E0003FF476AFA18D99427FF672AFE385D36942
:1033F000B3F5807F37D0226802F10C0353E8003F19
:1034000023F480730C3242E800310029F3D12268A2
:1034100002F1140353E8003F23F00103143242E8A1
:1034200000310029F3D1226802F1140353E8003F70
:1034300023F04003143242E800310029F3D1202365
:1034400084F83E3000232363226802F10C0353E822
:10345000003F23F010030C3242E800310029F3D181
:10346000A06BFEF768FFA18DE38D9BB2C91A89B2EC
:103470002046FFF792FE2BE7A18DE38D9BB2C91A80
:1034800089B2E38D9BB2002B3FF422AF00293FF4B9
:103490001FAF226802F10C0353E8003F23F490733E
:1034A0000C3242E800300028F3D1226802F1140304
:1034B00053E8003F23F00103143242E800300028B3
:1034C000F3D1202384F83E3000232363226802F1E5
:1034D0000C0353E8003F23F010030C3242E80030A5
:1034E0000028F3D12046FFF758FEF1E62046FFF70B
:1034F0006BFCEDE62046FFF706FEE9E68B3100089F
:1035000008B5806B036B012B02D0FFF710FE08BDDE
:10351000818D4908FFF741FEF9E708B50346806B46
:103520001B681B6813F4807F2BD10023C3850268BE
:1035300002F10C0353E8003F23F480730C3242E89D
:1035400000310029F3D1026802F1140353E8003F6F
:1035500023F00103143242E800310029F3D102685C
:1035600002F1140353E8003F23F04003143242E811
:1035700000310029F3D1202380F83E30036B012B6A
:1035800005D0036B012B0FD0FFF7D0FD08BD0268FB
:1035900002F10C0353E8003F23F010030C3242E821
:1035A00000310029F3D1ECE7818DFFF7F6FDEDE75F
:1035B00030B583B0044613468162828500250564D8
:1035C000222280F83E20826B2048D063A26B2048E4
:1035D0001064A26B1F48D064A26B156520680A4670
:1035E000011DA06BFEF772FE019523681A68019217
:1035F0005B680193019B84F83C5023695BB12268AE
:1036000002F10C0353E8003F43F480730C3242E8AC
:1036100000310029F3D1226802F1140353E8003F7E
:1036200043F00103143242E800310029F3D122684B
:1036300002F1140353E8003F43F04003143242E820
:1036400000310029F3D1002003B030BD1B35000844
:10365000013500083331000808B590F83E30DBB280
:10366000202B0DD171B17AB190F83C30012B0DD0E7
:10367000012380F83C3000230363FFF799FF00E04B
:10368000022008BD0120FCE70120FAE70220F8E74C
:1036900000F1080343604FF0FF328260C3600361B2
:1036A00000230360704700230361704743684B6049
:1036B0009A688A6051609960086103680133036009
:1036C000704730B40D68B5F1FF3F11D000F1080329
:1036D0001C465B681A68AA42FAD963684B60996015
:1036E0008C606160086103680133036030BC70471F
:1036F0000469F2E70369416882688A604168516041
:103700005A68824206D0002202611A68013A1A60A1
:103710001868704782685A60F5E710B5044601F0F2
:10372000D1FCA26BE36B9A4204D0002401F0ECFCC4
:10373000204610BD0124F9E710B5044601F0C2FC93
:10374000A36B23B9012401F0DFFC204610BD002447
:10375000F9E770B504461546866B026C5AB90368E2
:103760001BB100200136A66370BD806800F0F0FF39
:103770000023A360F6E76DB9406802F0A7FA226C57
:10378000636813446360A268934219D3236863603B
:103790002846E7E7C06802F099FA226C5142E368D4
:1037A0009B1AE3602268934202D2A3680B44E36051
:1037B000022D01D00020D5E726B1013E0020D1E73F
:1037C0002846CFE70020CDE70346026C6AB110B56A
:1037D0000846D9681144D9609C68A14201D3196890
:1037E000D960D96802F072FA10BD704738B5054645
:1037F00001F068FC95F8454064B201E0013C64B218
:10380000002C0ADD6B6A43B105F1240000F0DAFEFA
:103810000028F3D000F086FFF0E7FF2385F845305D
:1038200001F072FC01F04EFC95F8444064B201E0F6
:10383000013C64B2002C0ADD2B6943B105F1100094
:1038400000F0C0FE0028F3D000F06CFFF0E7FF238B
:1038500085F8443001F058FC38BD38B5E0B10D466C
:10386000044601F02FFC2368E26B216C01FB02305F
:10387000A0600020A0636360013A02FB0133E360B3
:10388000FF2384F8443084F84530FDB9236963B9D7
:1038900001F03AFC012038BD4FF0500383F311884A
:1038A000BFF36F8FBFF34F8FFEE704F1100000F0FE
:1038B00089FE0028ECD04FF0E0234FF08052C3F88F
:1038C000042DBFF34F8FBFF36F8FE1E704F11000BA
:1038D000FFF7DEFE04F12400FFF7DAFED8E738B583
:1038E0001D46049C0B4649B92460E0632364012112
:1038F0002046FFF7B2FF84F84C5038BD2260F4E751
:1039000040B94FF0500383F31188BFF36F8FBFF3BB
:103910004F8FFEE710B584B01C46844653B192B178
:1039200089B94FF0500383F31188BFF36F8FBFF352
:103930004F8FFEE74FF0500383F31188BFF36F8F73
:10394000BFF34F8FFEE76AB150230393039B502BC5
:1039500013D04FF0500383F31188BFF36F8FBFF381
:103960004F8FFEE70029EFD04FF0500383F311880B
:10397000BFF36F8FBFF34F8FFEE7039B012384F8E4
:10398000463000949DF818306046FFF7A8FF2046A7
:1039900004B010BDF0B585B0019288B10F461D4648
:1039A0000446B1B1022D20D1E36B012B1DD04FF0A5
:1039B000500383F31188BFF36F8FBFF34F8FFEE780
:1039C0004FF0500383F31188BFF36F8FBFF34F8F16
:1039D000FEE7036C002BE5D04FF0500383F3118812
:1039E000BFF36F8FBFF34F8FFEE700F0A1FE0646D7
:1039F00058B9019B002B48D04FF0500383F3118836
:103A0000BFF36F8FBFF34F8FFEE700263DE02A46DE
:103A100039462046FFF79DFE636A7BB948B14FF0F7
:103A2000E0234FF08052C3F8042DBFF34F8FBFF354
:103A30006F8F01F069FB012005B0F0BD04F1240097
:103A400000F0C0FD0028F4D04FF0E0234FF080528A
:103A5000C3F8042DBFF34F8FBFF36F8FE9E701F079
:103A600053FB0020E8E702A800F00EFE012619E053
:103A7000002384F8443021E0002384F8453023E01B
:103A80002046FFF7B3FE00F07DFC01F01BFBA26BAC
:103A9000E36B9A42BBD3022DB9D0019B002BDED041
:103AA000002EE0D001F030FB00F0D2FB01F00AFB69
:103AB00094F8442052B2B2F1FF3FD9D094F8452097
:103AC00052B2B2F1FF3FD7D001F01EFB01A902A80C
:103AD00000F0E6FDD8B92046FFF71FFE0028CFD042
:103AE000019904F1100000F039FD2046FFF77EFE39
:103AF00000F048FC0028C8D14FF0E0234FF080527E
:103B0000C3F8042DBFF34F8FBFF36F8FBDE720467F
:103B1000FFF76CFE00F036FC00208DE72DE9F8433E
:103B200090B10F4616461C460546B1B1022C20D175
:103B3000EB6B012B1DD04FF0500383F31188BFF3C3
:103B40006F8FBFF34F8FFEE74FF0500383F3118861
:103B5000BFF36F8FBFF34F8FFEE7036C002BE5D0F1
:103B60004FF0500383F31188BFF36F8FBFF34F8F74
:103B7000FEE701F0CDFBEFF311894FF0500383F323
:103B80001188BFF36F8FBFF34F8FAA6BEB6B9A4215
:103B900006D3022C04D0002089F31188BDE8F883F5
:103BA00095F845804FFA88F8AB6B2246394628468F
:103BB000FFF7CFFDB8F1FF3F06D008F101035BB27C
:103BC00085F845300120E7E76B6A0BB90120E3E790
:103BD00005F1240000F0F6FC18B126B10120306098
:103BE000DAE70120D8E70120D6E7F0B585B00192E9
:103BF00090B10F460446C1B100F09AFD064600BBE5
:103C0000019B002B5ED04FF0500383F31188BFF36C
:103C10006F8FBFF34F8FFEE74FF0500383F3118890
:103C2000BFF36F8FBFF34F8FFEE7036C002BE3D022
:103C30004FF0500383F31188BFF36F8FBFF34F8FA3
:103C4000FEE700263EE039462046FFF7BDFD013D78
:103C5000A563236923B901F057FA012005B0F0BD2F
:103C600004F1100000F0AEFC0028F4D04FF0E02387
:103C70004FF08052C3F8042DBFF34F8FBFF36F8F07
:103C8000E9E701F041FA0020E8E702A800F0FCFCB7
:103C9000012621E0002384F8443029E0002384F841
:103CA00045302BE02046FFF7A1FD00F06BFB09E05B
:103CB0002046FFF79BFD00F065FB2046FFF73CFD2B
:103CC00000283FD101F0FEF9A56B002DBBD1019B6F
:103CD000002BD6D0002ED8D001F016FA00F0B8FA9A
:103CE00001F0F0F994F844305BB2B3F1FF3FD1D06A
:103CF00094F845305BB2B3F1FF3FCFD001F004FA46
:103D000001A902A800F0CCFC0028D1D12046FFF781
:103D100013FD0028C6D0019904F1240000F01EFC18
:103D20002046FFF763FD00F02DFB0028CAD14FF0BD
:103D3000E0234FF08052C3F8042DBFF34F8FBFF341
:103D40006F8FBFE7002089E70023072B0CD8074AB5
:103D500052F833200AB10133F7E7044A42F833102E
:103D600002EBC30358607047704700BF9C410020BE
:103D700070B504460D46164601F0A4F994F8443097
:103D80005BB2B3F1FF3F0DD094F845305BB2B3F1B5
:103D9000FF3F0BD001F0B8F9A36B5BB12046FFF7F2
:103DA00025FD70BD002384F84430EDE7002384F83E
:103DB0004530EFE73246294604F1240000F0E6FBE7
:103DC000ECE70000084B1B681B6823B9074B4FF05A
:103DD000FF321A607047044B1B68DB68DB685A6867
:103DE000024B1A60704700BFE04100208846002067
:103DF0002DE9F04780460D4617469946089EDDF8A6
:103E000024A00A9C9200A521206B01F06DFF236B7A
:103E100007F18042013A03EB820727F00707B5B3A9
:103E20004FF0000CBCF10F0F0BD815F80C2004EB71
:103E30000C0383F8342015F80C3013B10CF1010C8D
:103E4000F0E7002384F84330372E00D93726E662A6
:103E5000E66400252565201DFFF725FC04F1180008
:103E6000FFF721FC2461C6F13806A661646265652E
:103E700084F858504A464146384601F0F7F8206029
:103E8000BAF1000F01D0CAF80040BDE8F087002366
:103E900084F83430D8E7000038B5002407E004EB9C
:103EA000840293000E481844FFF7F2FB0134372CCC
:103EB000F5D90C4D2846FFF7EBFB0B4C2046FFF7DE
:103EC000E7FB0A48FFF7E4FB0948FFF7E1FB094875
:103ED000FFF7DEFB084B1D60084B1C6038BD00BFC0
:103EE000E84100205C4600207046002094460020F7
:103EF000C0460020AC460020E0410020E441002004
:103F000010B5044601F0DEF8224A1368013313604D
:103F1000214B1B685BB1214B1B686BB91E4B1B68A7
:103F2000DA6AE36A9A4207D81B4B1C6004E01A4B1A
:103F30001C601368012B29D0194A136801331360E0
:103F40006364E06A174B1B68984201D9154B1860EF
:103F500000EB8000211D144B03EB8000FFF7A6FB54
:103F600001F0D2F80D4B1B687BB10B4B1B68DA6A72
:103F7000E36A9A4209D24FF0E0234FF08052C3F82F
:103F8000042DBFF34F8FBFF36F8F10BDFFF784FF7A
:103F9000D2E700BF48460020DC410020A8460020B0
:103FA0005446002058460020E841002010B5044641
:103FB00090F8593063B1012B11D0022B0ED04FF085
:103FC000500383F31188BFF36F8FBFF34F8FFEE76A
:103FD000006B00F0CFFF204600F0CCFF10BD00F0DA
:103FE000C9FFFBE70F4B1B68D3B110B501F06AF8AE
:103FF0000D4BDB68DC68201DFFF77CFB0B4A136868
:10400000013B1360074A1368013B136001F07CF821
:104010002046FFF7CBFF034B1B68002BE6D110BDFA
:10402000704700BF4C460020C04600204846002094
:1040300008B5FFF7D7FF074B1B68012BF9D94FF0E5
:10404000E0234FF08052C3F8042DBFF34F8FBFF32E
:104050006F8FEEE7E841002070B504460D46174B20
:104060001E68174B18680430FFF744FBB4F1FF3F9C
:104070000DD03444124B1B685C60A64210D9114B22
:1040800018680F4B19680431FFF71BFB70BD002D3A
:10409000EFD00B4B196804310B48FFF707FBF5E72E
:1040A0000A4B1868064B19680431FFF70AFB084BE6
:1040B0001B68A342EAD9064B1C60E7E7D446002000
:1040C000DC410020E4410020AC460020E04100201B
:1040D0008846002030B587B00B9C7CB10C9DB5B1F3
:1040E0005C250495049D5C2D1AD04FF0500383F39A
:1040F0001188BFF36F8FBFF34F8FFEE74FF0500370
:1041000083F31188BFF36F8FBFF34F8FFEE74FF03C
:10411000500383F31188BFF36F8FBFF34F8FFEE718
:10412000049D0C9D2C63022485F8594000240394BF
:10413000029505AC01940A9C0094FFF759FE0C9877
:10414000FFF7DEFE059807B030BD2DE9F04385B0DE
:104150000746884614461E46900000F08DFE00B3C8
:1041600081465C2000F088FE0546B0B1C0F8309072
:10417000E5B1002385F85930039302950D9B019317
:104180000C9B00933346224641463846FFF730FEEB
:104190002846FFF7B5FE012005E0484600F0EAFE9C
:1041A000E6E74FF0FF3005B0BDE8F0834FF0FF3099
:1041B000F9E7000010B588B000240594069407AA1A
:1041C00006A905A800F0DCFD059B0293069B019360
:1041D00000942346079A18491848FFF77BFF184BAD
:1041E000186040B100F068FB012806D0B0F1FF3F35
:1041F00018D008B010BD0020F6E74FF0500383F34D
:104200001188BFF36F8FBFF34F8F0E4B4FF0FF320C
:104210001A600D4B01221A600C4B00221A6000F04C
:10422000EBFFE6E74FF0500383F31188BFF36F8F86
:10423000BFF34F8FFEE700BFE4FA000831400008EB
:104240008446002088460020A8460020D44600204E
:10425000024A136801331360704700BF50460020C4
:10426000014B1868704700BFD4460020F8B53A4BA0
:104270001B68002B69D1394B1D6801351D60C5B91C
:10428000374B1B681B6843B14FF0500383F3118811
:10429000BFF36F8FBFF34F8FFEE7314A1168314B89
:1042A000186810601960304A136801331360FFF713
:1042B00089FD2E4B1B68AB423DD900272C4B1B6858
:1042C000DB6A03EB83039A002A4B9B58012B00D92E
:1042D0000127294B1B68002B3CD001273AE001271E
:1042E0001F4B1B681B6843B31D4B1B68DB68DC68F6
:1042F00063689D4226D3261D3046FFF7FBF9A36A6B
:104300001BB104F11800FFF7F5F9E36A1B4A1268C4
:10431000934201D9194A136003EB83039A00314693
:1043200014481044FFF7C2F9E26A114B1B68DB6ABC
:104330009A42D4D2D4E70027D2E70C4B4FF0FF3299
:104340001A60BBE7094A1360B8E70D4A13680133E6
:10435000136000273846F8BD50460020D4460020A0
:10436000E0410020E44100208C46002088460020E7
:10437000DC410020E8410020D846002058460020BB
:104380009046002038B5354B1B6843B94FF05003B9
:1043900083F31188BFF36F8FBFF34F8FFEE700F0F9
:1043A00091FE2E4B1A68013A1A601B68002B4FD100
:1043B0002B4B1B680BB900244BE00024294B1B68D6
:1043C0001BB3284BDB68DC6804F11800FFF792F997
:1043D000251D2846FFF78EF9E06A234B1B6898429B
:1043E00001D9214B186000EB800029461F4B03EBDD
:1043F0008000FFF75BF9E26A1D4B1B68DB6A9A429B
:10440000DCD31C4B01221A60D8E70CB1FFF7DAFCB1
:10441000194B1C6884B9174B1C68D4B14FF0E023CA
:104420004FF08052C3F8042DBFF34F8FBFF36F8F4F
:1044300001240EE0013C07D0FFF718FF0028F9D057
:104440000C4B01221A60F5E70B4B00221A60E2E7E1
:10445000002400F059FE204638BD00BF5046002021
:10446000484600209446002058460020E84100209D
:10447000DC410020D84600209046002010B5A8B1AD
:104480000446104B1B6843B14FF0500383F311886F
:10449000BFF36F8FBFF34F8FFEE7FFF7D9FE002109
:1044A0002046FFF7D9FDFFF76DFF48B94FF0E02335
:1044B0004FF08052C3F8042DBFF34F8FBFF36F8FBF
:1044C00010BD00BF504600201F4B1B681BB11F4B87
:1044D00001221A6070471D4B00221A601C4B1B689A
:1044E00003EB83018A001B498A585AB90BB1013B7F
:1044F000F6E74FF0500383F31188BFF36F8FBFF3DC
:104500004F8FFEE703EB830082000A445068406847
:10451000506003EB830C4FEA8C020832114488424E
:104520000BD003EB830291000A4A0A445268D16817
:10453000094A1160064A136070474068624691005C
:10454000044A0A445060ECE750460020D846002058
:1045500058460020E8410020DC41002058B110B549
:104560000C46094A11681831FFF7ABF801212046C3
:10457000FFF772FD10BD4FF0500383F31188BFF3B6
:104580006F8FBFF34F8FFEE7DC41002038B570B16D
:104590000D4614460A4A11681831FFF787F80CB126
:1045A0004FF0FF3521462846FFF756FD38BD4FF046
:1045B000500383F31188BFF36F8FBFF34F8FFEE774
:1045C000DC41002038B5C368DC6824B304F1180569
:1045D0002846FFF78FF8184B1B682BBB251D284674
:1045E000FFF788F8E06A154B1B68984201D9134B16
:1045F000186000EB80002946114B03EB8000FFF7A9
:1046000055F8E26A0F4B1B68DB6A9A4211D9012008
:104610000D4B186038BD4FF0500383F31188BFF382
:104620006F8FBFF34F8FFEE729460848FFF73EF82C
:10463000E7E70020EEE700BF504600205846002084
:10464000E8410020DC410020D846002094460020AC
:1046500060B110B5044600F035FD094B1B682360BE
:10466000084B1B68636000F04FFD10BD4FF0500316
:1046700083F31188BFF36F8FBFF34F8FFEE700BF47
:104680008C460020D4460020034B1B680360034B7C
:104690001B684360704700BF8C460020D446002052
:1046A000F8B5C8B10C460546F9B100F00BFD1B4B3F
:1046B00019686B68C81A2268B2F1FF3F26D0184EFD
:1046C00036682F68B74201D08B4224D9824215D870
:1046D0000023236001241AE04FF0500383F3118874
:1046E000BFF36F8FBFF34F8FFEE74FF0500383F39D
:1046F0001188BFF36F8FBFF34F8FFEE75B1A134430
:1047000023602846FFF7C0FF002400E0002400F0EB
:10471000FBFC2046F8BD0124F9E700BFD446002089
:104720008C460020014B01221A607047D8460020B9
:10473000054B1B6833B1054B1B680BB1002070475C
:104740000220704701207047A846002050460020F4
:1047500000283BD038B504461E4B1B68834208D066
:104760004FF0500383F31188BFF36F8FBFF34F8F68
:10477000FEE7036D43B94FF0500383F31188BFF395
:104780006F8FBFF34F8FFEE7013B0365C16AC26CB9
:1047900091421DD00BB1002038BD051D2846FEF703
:1047A000A9FFE06CE062C0F13803A3610A4B1B680B
:1047B000984201D9084B186000EB80002946074B4E
:1047C00003EB8000FEF772FF0120E5E70020704751
:1047D0000020E1E7DC41002058460020E8410020AD
:1047E000064B1A6813682BB90123036023B9D368F9
:1047F000186870470023F8E700207047DC46002067
:1048000008B54160006191420CD8D21A83699A427E
:1048100001D3012008BD011D094B1868FEF751FFA7
:104820000020F7E79A4201D2994206D2011D054BBA
:104830001868FEF746FF0020ECE70120EAE700BF1A
:10484000E0460020DC46002030B583B000F03AFCA2
:10485000114B1B681BB100F057FC03B030BD0F4D6E
:104860002846FEF715FF0E4C2046FEF711FF0D4BB4
:104870001D600D4B1C60002300930C4B0C4A102153
:104880000A20FFF73DF8044B18600028E3D00949DF
:10489000FFF75AFADFE700BF0048002084470020F6
:1048A00098470020DC460020E0460020B04700206A
:1048B000E4460020ECFA000810B588B0FFF7C4FF0A
:1048C000124B1B68CBB100240594069407AA06A9D5
:1048D00005A800F061FA059B0293069B0193022351
:1048E00000932346079A0A490A48FFF7F3FB0A4B4D
:1048F000186010B1012008B010BD4FF0500383F3D1
:104900001188BFF36F8FBFF34F8FFEE70048002081
:10491000F4FA00081D4C000804480020B8B19C4679
:1049200003461848006858B300B585B0009101925D
:10493000029305291CDCFFF7FBFE022810D00023A0
:104940001A4669460F480068FFF724F815E04FF053
:10495000500383F31188BFF36F8FBFF34F8FFEE7D0
:104960000023069A694607480068FFF713F804E039
:10497000002362466946FFF7D1F805B05DF804FBF5
:10498000002070470048002070B582B01B4B1B68A8
:104990001A6862B3DB681E68DC68251D2846FEF7CE
:1049A000A9FE236A2046984794F8283013F0040F94
:1049B000ECD0A36933449E4207D263602461294648
:1049C0000E4B1868FEF77DFEE0E7002100910B46D4
:1049D00032462046FFF7A2FF0028D7D14FF0500300
:1049E00083F31188BFF36F8FBFF34F8FFEE7044A45
:1049F000106802490860136002B070BDDC460020F8
:104A0000E046002038B50546FFF72AFC0446074B70
:104A10001B68834205D800232B60044B1C60204692
:104A200038BDFFF7B1FF01232B60F6E7AC4700204C
:104A300070B582B006460D4617490968C968CC684A
:104A4000201DFEF757FE94F828C01CF0040F08D173
:104A50002CF0010C84F828C0236A2046984702B045
:104A600070BDA16933462A4631442046FFF7C8FE8F
:104A70000028F1D0002100910B4632462046FFF776
:104A80004DFF0028E8D14FF0500383F31188BFF3A6
:104A90006F8FBFF34F8FFEE7DC46002070B582B00A
:104AA00006460C46FFF7D4FB01A8FFF7ABFF019BBE
:104AB00033BB05460CB9B04219D224B1124A126870
:104AC0001268DAB901242246711B104B1868FFF7EF
:104AD0004FF9FFF757FCA8B94FF0E0234FF0805291
:104AE000C3F8042DBFF34F8FBFF36F8F0AE0FFF7BA
:104AF00049FC29463046FFF79BFF03E01C46E2E7EE
:104B0000FFF740FC02B070BDE046002000480020E6
:104B100010B588B002E0049B002B0FDA002204A934
:104B20003D4B1868FFF761F8002873D0049B002BF9
:104B3000F1DA07990698059B9847ECE7069C6369AC
:104B400013B1201DFEF7D6FD03A8FFF75BFF049B02
:104B5000092BE3D8DFE803F00505053037500505DC
:104B6000303794F8283043F0010384F82830059B4F
:104B7000A169024619442046FFF742FE0028CDD025
:104B8000236A2046984794F8283013F0040FC5D0C4
:104B9000A269002100910B46059802442046FFF7C8
:104BA000BDFE0028BAD14FF0500383F31188BFF344
:104BB0006F8FBFF34F8FFEE794F8283023F0010387
:104BC00084F82830AAE794F8283043F0010384F8E9
:104BD00028300599A16131B10346024601442046BF
:104BE000FFF70EFE9AE74FF0500383F31188BFF3EF
:104BF0006F8FBFF34F8FFEE794F8283013F0020F4A
:104C000004D023F0010384F8283087E7204600F021
:104C1000B1F983E708B010BD0048002000B583B0AB
:104C200001A8FFF7DDFD0199FFF738FFFFF770FFDF
:104C3000F6E708B54FF0E0231B69FFF779FD01287F
:104C400000D108BD00F0AEFAFBE70000EFF30583EA
:104C50002BB9064B186828B901221A6070476FF00B
:104C6000050070474FF0FF30704700BF644A0020D6
:104C7000EFF3058373B90A4B1B68012B0DD110B5F7
:104C80000024084BDC77064B02221A60FFF792FAE9
:104C9000204610BD6FF0050070474FF0FF307047A1
:104CA000644A002000ED00E0F0B587B000240594D0
:104CB000EFF3058474BB68B322B31568936903B935
:104CC00018235C1E372C49D8546814F0010F47D1C3
:104CD00056696EB14FEA960C94682CB1D7685B2F79
:104CE00002D9176907B1C6B92CB14FF0FF340EE0F5
:104CF0004FF0800CF0E7D4688CB9146994B14FF090
:104D0000FF3404E01546002418234FF0800C012CDA
:104D10000AD0ACB1059807B0F0BD0124F7E74FF019
:104D2000FF34F4E70024F2E71469926802920194D8
:104D300000930B4662462946FFF7CCF90590E9E758
:104D400005AA019200930B461FFA8CF22946FFF741
:104D5000FCF90128DED000230593DBE70020DAE729
:104D60000020D8E708B5EFF3058333B908B9002070
:104D700008BDFFF783FB0020FAE76FF00500F7E7B7
:104D8000034B0360034B0B6080231360704700BF2D
:104D9000084A002008480020034B0360034B0B60C7
:104DA0004FF4807313607047684E0020684A0020FB
:104DB000124A12F0070F1ED0D11D21F00701C1F5D4
:104DC000705313440A460E480260002141601344A8
:104DD000083B23F007030B48036059601960991AD8
:104DE00051601360084B1960084B1960084B4FF075
:104DF00000421A6070474FF47053E4E7C84E002039
:104E0000DC8A0020C44E0020D08A0020CC8A0020FA
:104E1000C88A0020164B1A461B688342FBD3516890
:104E200002EB010C844509D0416800EB010C63459D
:104E300009D00360904219D0106070474068014467
:104E400051601046F0E710B40A4C2468A3420BD01E
:104E50005B681944416013681B680360904200D08E
:104E600010605DF8044B70470460F7E7704700BFBF
:104E7000DC8A0020C44E002070B50546FFF7E8F933
:104E8000364B1B68A3B1364B1B681D424ED135B162
:104E9000083515F0070F02D025F007050835002D5D
:104EA00046D0304B1B68AB4251D32F4A146804E004
:104EB000FFF77EFFE7E722461C466368AB4202D25B
:104EC0002368002BF7D1254B1B68A34241D01668FD
:104ED00008362368136063685B1B102B10D96019B8
:104EE00010F0070F08D04FF0500383F31188BFF381
:104EF0006F8FBFF34F8FFEE743606560FFF78AFF58
:104F0000626818490B689B1A0B60184909688B4244
:104F100001D216490B60124B1B68134363600023D8
:104F20002360134A13680133136002E0002600E097
:104F30000026FFF727FA16F0070F0CD04FF05003AA
:104F400083F31188BFF36F8FBFF34F8FFEE7002607
:104F5000EFE70026EDE7304670BD00BFC44E0020ED
:104F6000C88A0020CC8A0020DC8A0020D08A002059
:104F7000D48A0020002834D038B50446A0F10805B2
:104F800050F8043C174A1268134208D14FF05003FE
:104F900083F31188BFF36F8FBFF34F8FFEE750F895
:104FA000081C41B14FF0500383F31188BFF36F8F9A
:104FB000BFF34F8FFEE723EA020340F8043CFFF7FC
:104FC00047F954F8041C084A13680B441360284638
:104FD000FFF720FF054A136801331360FFF7D2F98A
:104FE00038BD7047C88A0020CC8A0020D88A0020AB
:104FF00082B0002301930D4B1B68B3F1FF3F08D033
:105000004FF0500383F31188BFF36F8FBFF34F8FBF
:10501000FEE74FF0500383F31188BFF36F8FBFF3A8
:105020004F8F019B002BFCD002B070471000002076
:1050300008480068006880F308884FF0000080F39B
:10504000148862B661B6BFF34F8FBFF36F8F00DF76
:1050500000BF000008ED00E0DFF80C00016841F43B
:10506000700101607047000088ED00E04FF0807330
:1050700040F8043C21F0010140F8081C054B40F8C1
:105080000C3C40F8202C6FF0020340F8243C4438DC
:10509000704700BFF14F0008000000000000000052
:1050A000074B19680868B0E8F04F80F30988BFF330
:1050B0006F8F4FF0000080F311887047AFF30080CE
:1050C000DC4100204FF0500383F31188BFF36F8F52
:1050D000BFF34F8F0B4A136801331360012B00D0CD
:1050E00070474FF0E023D3F8043D13F0FF0FF7D0E3
:1050F0004FF0500383F31188BFF36F8FBFF34F8FCF
:10510000FEE700BF10000020094B1B6843B94FF0B9
:10511000500383F31188BFF36F8FBFF34F8FFEE708
:10512000013B034A13600BB983F31188704700BF3A
:10513000100000200000000000000000000000003F
:10514000EFF30980BFF36F8F154B1A681EF0100F35
:1051500008BF20ED108A20E9F04F10602DE909000A
:105160004FF0500080F31188BFF34F8FBFF36F8F64
:10517000FFF7AAF94FF0000080F3118809BC196805
:105180000868B0E8F04F1EF0100F08BFB0EC108AAE
:1051900080F30988BFF36F8F704700BFAFF30080C3
:1051A000DC41002008B54FF0500383F31188BFF3B2
:1051B0006F8FBFF34F8FFFF759F828B14FF0E023FF
:1051C0004FF08052C3F8042D002383F3118808BDEB
:1051D0004FF0E022002313619361054B1B680549E2
:1051E000A1FB03139B09013B536107231361704724
:1051F0000C000020D34D62104FF0E023D3F8002DB7
:105200003D4B9A421CD04FF0E023D3F8002D3B4B8E
:105210009A421ED030B583B0394B1A78D2B201927F
:10522000FF221A701B78DBB28DF803309DF8033033
:1052300003F05003334A1370334B07221A601BE00C
:105240004FF0500383F31188BFF36F8FBFF34F8F7D
:10525000FEE74FF0500383F31188BFF36F8FBFF366
:105260004F8FFEE7284A1368013B13609DF8033017
:105270005B00DBB28DF803309DF8033013F0800F34
:10528000F0D1214B1B68032B08D04FF0500383F360
:105290001188BFF36F8FBFF34F8FFEE71B021A4ACF
:1052A000136003F4E0631360019BDBB2144A1370D4
:1052B0004FF0E024D4F8203D43F47003C4F8203DBF
:1052C000D4F8203D43F07043C4F8203DFFF780FF41
:1052D00000250E4B1D60FFF7BFFED4F8343F43F0AE
:1052E0004043C4F8343FFFF7A3FEFFF7EDF8FFF7A4
:1052F0007FFE284603B030BD71C20F4170C20F411E
:1053000000E400E0E48A0020E88A00201000002089
:10531000EFF305830F2B0FD9114A9B5CDBB2114AC7
:1053200012789A4208D94FF0500383F31188BFF3E3
:105330006F8FBFF34F8FFEE74FF0E023D3F80C3DA4
:1053400003F4E063084A1268934208D94FF050030F
:1053500083F31188BFF36F8FBFF34F8FFEE7704762
:10536000F0E300E0E48A0020E88A002000B58DB078
:105370002422002103A800F0B7FC0023019302932C
:105380001348144A0260436083604FF6FF72C260A4
:1053900003618023836103230393012205920A237F
:1053A000079309920B9303A9FBF7FAFD50B9002369
:1053B0000193029301A90648FCF7D2F928B90DB070
:1053C0005DF804FBFBF754F9F1E7FBF751F9F6E759
:1053D000EC8A00200004004000B58BB00023069347
:1053E0000793089309930493059300930193029301
:1053F00003932148214A02604AF6C77242608360E3
:105400004FF6FF72C260036180238361FBF744FDA6
:1054100010BB4FF48053069306A91748FBF76FFFA4
:10542000E8B91548FBF790FDE0B900230493059314
:1054300004A91148FCF794F9B8B90022009201239D
:10544000019302920A23039369460B48FBF7E8FE97
:1054500070B90BB05DF804FBFBF70AF9D9E7FBF76D
:1054600007F9DEE7FBF704F9DFE7FBF701F9E4E70B
:10547000FBF7FEF8EDE700BF348B0020000800408A
:1054800000B589B000230393049305930693079313
:105490000268154B9A4202D009B05DF804FB002166
:1054A000019103F50D331A6C42F002021A641A6C72
:1054B00002F002020192019A02911A6B42F001027B
:1054C0001A631B6B03F001030293029BC023039337
:1054D00002230493012205920693079303A903482C
:1054E000FCF70AFDD8E700BF0004004000000240BE
:1054F00010B588B000230393049305930693079394
:105500000368204A934204D01F4A93422DD008B02A
:1055100010BD002400941D4B1A6C42F004021A6462
:105520001A6C02F004020092009A01941A6B42F085
:1055300008021A631B6B03F008030193019B4FF4ED
:105540008053039302230493059303220692079347
:1055500003A90F48FCF7D0FC224605211E20FDF7C9
:1055600085F81E20FDF7BAF8D1E700230293074B18
:105570005A6C42F002025A645B6C03F0020302931D
:10558000029BC4E7000800400004014000380240CC
:10559000000C024000B587B00023019302930393EF
:1055A00004930593026803F1804303F582339A4222
:1055B00002D007B05DF804FB002300930A4B1A6B7E
:1055C00042F004021A631B6B03F004030093009B78
:1055D000C0230193022302930323059301A90348E7
:1055E000FCF78AFCE5E700BF0038024000080240F3
:1055F00010B596B00024129413941494159410943A
:10560000119409940A940B940C940D940E940F9495
:105610002022214601A800F067FB3248324B03608C
:1056200017234360846040F2E733C3600461446140
:1056300080238361FBF730FC00283ED14FF4805378
:10564000129312A92748FBF75AFE002838D12548A3
:10565000FBF74EFC002836D100231093119310A9BC
:105660002048FCF77DF8002830D160230993002200
:105670000A920B920C920D920E920F9209A9194860
:10568000FBF722FD28BB042209A91648FBF71CFDE5
:1056900010BB0023019302930393049305934FF4EB
:1056A00000520692089301A90E48FCF79FF8B0B982
:1056B0000C48FFF76FFF16B010BDFAF7D9FFBDE732
:1056C000FAF7D6FFC3E7FAF7D3FFC5E7FAF7D0FF3B
:1056D000CBE7FAF7CDFFD6E7FAF7CAFFD9E7FAF733
:1056E000C7FFE5E77C8B002000040140124A12F05E
:1056F000070F1ED0D11D21F00701C1F570531344CF
:105700000A460E480260002141601344083B23F022
:1057100007030B48036059601960991A51601360C0
:10572000084B1960084B1960084B4FF000421A6093
:1057300070474FF47053E4E7C88B0020D4C70020B3
:10574000C48B0020D0C70020CCC70020C8C70020D1
:10575000164B1A461B688342FBD3516802EB010CBF
:10576000844509D0416800EB010C634509D0036012
:10577000904219D010607047406801445160104653
:10578000F0E710B40A4C2468A3420BD05B681944BC
:10579000416013681B680360904200D010605DF8A0
:1057A000044B70470460F7E7704700BFD4C7002080
:1057B000C48B002070B50546FEF74AFD344B1B68CC
:1057C000A3B1344B1B681D424AD135B1083515F0E1
:1057D000070F02D025F007050835002D42D02E4BCB
:1057E0001B68AB424DD32D4A146804E0FFF77EFFDF
:1057F000E7E722461C466368AB4202D22368002BCF
:10580000F7D1234B1B68A3423DD0166808362368A6
:10581000136063685B1B102B10D9601910F0070F21
:1058200008D04FF0500383F31188BFF36F8FBFF39D
:105830004F8FFEE743606560FFF78AFF6268164995
:105840000B689B1A0B60164909688B4201D21449F8
:105850000B60104B1B68134363600023236002E05E
:10586000002600E00026FEF78DFD16F0070F0CD095
:105870004FF0500383F31188BFF36F8FBFF34F8F47
:10588000FEE70026EFE70026EDE7304670BD00BFDB
:10589000C48B0020C8C70020CCC70020D4C700207C
:1058A000D0C7002080B338B50446A0F1080550F8F1
:1058B000043C164A1268134208D14FF0500383F398
:1058C0001188BFF36F8FBFF34F8FFEE750F8081CAE
:1058D00041B14FF0500383F31188BFF36F8FBFF3D3
:1058E0004F8FFEE723EA020340F8043CFEF7B0FCCA
:1058F00054F8041C064A13680B4413602846FFF74B
:1059000027FFFEF73FFD38BD704700BFC8C7002026
:10591000CCC7002050F8043C024A106823EA00007B
:10592000704700BFC8C7002070B505460C46FEF79B
:105930008FFC2046FFF73EFF064678B175B128463A
:10594000FFF7E8FF0838844200D304462246294680
:10595000304600F0BBF92846FFF7A4FFFEF712FD22
:10596000304670BD38B505460C46FEF771FC05FBA8
:1059700004F42046FFF71EFF0546034603E000211E
:1059800003F8011B1446621E002CF8D1FEF7FAFC46
:10599000284638BD08B5034605490A6802440A602E
:1059A00004490A6813440B60FFF704FF08BD00BFF9
:1059B000DCC70020E0C7002058B110B50446FFF74F
:1059C000A9FF044A13681B1A13602046FFF76AFFF9
:1059D00010BD7047E0C7002038B50C460C4A13686C
:1059E0000B4413600B4A13680B44136058B105460F
:1059F000FFF790FF074A13681B1A136021462846D9
:105A0000FFF792FF38BD0846FFF7D4FEFAE700BF64
:105A1000DCC70020E0C7002010B501FB00F3054CF7
:105A200022681A442260044C226813442360FFF762
:105A300099FF10BDDCC70020E0C700200000000077
:105A40002DE9F04107460E46144615A3D3E900237D
:105A5000FAF726FC0D4680462060616010A3D3E96A
:105A6000002338463146FAF71BFCA260002A01DB0E
:105A7000BDE8F081084981FB0231D317C3EB2173E4
:105A80000133B8EB030165EBE37521606560034901
:105A900001FB0322A260EBE7A12FB84400CA9A3BA6
:105AA00000CA9A3B0000000030B583B00D460024C8
:105AB000009401946846FEF7CBFD0099019A4FEAE5
:105AC000411C4CEAD26C53019B1A6CEB010C4FEA5F
:105AD0004C2C4CEAD35C5B029B1841EB0C0C4FEA5C
